:020000040800F2
:10000000E04D00204D0200083F2C00083B2C00086A
:100010003D2C0008DD1000087D32000800000000C3
:10002000000000000000000000000000B501000812
:10003000DF10000800000000F9010008812D000811
:1000400067020008670200086702000867020008EC
:1000500067020008670200086702000867020008DC
:1000600067020008670200086702000867020008CC
:1000700067020008670200086702000867020008BC
:1000800067020008670200086702000867020008AC
:10009000670200086702000867020008E110000814
:1000A000670200086702000867020008670200088C
:1000B0006702000867020008912E00086702000826
:1000C000670200086702000867020008670200086C
:1000D000670200086702000839320008670200085A
:1000E00067020008670200086702000800F002F8D3
:1000F00000F050F80AA090E8000C82448344AAF172
:100100000107DA4501D100F045F8AFF2090EBAE86F
:100110000F0013F0010F18BFFB1A43F0010318473B
:10012000C06C0000E06C0000103A24BF78C878C1B1
:10013000FAD8520724BF30C830C144BF04680C60ED
:10014000704700000023002400250026103A28BF35
:1001500078C1FBD8520728BF30C148BF0B60704739
:10016000642900F0FD80752900F0FA80782900F0FC
:100170003381732900F0C682002070471FB59DE8C7
:10018000030000F003FD00F0F3FA1FBD10B500F00E
:1001900058FB10BD00F0C0FB1146FFF7EFFF03F066
:1001A00097FE00F0C5FC03B4FFF7F0FF03BC00F0BE
:1001B0005FFE0000224B19680868B0E8F00F80F37A
:1001C0000988BFF36F8F4FF0000080F311884EF065
:1001D0000D0E70470000000006480068006880F3BC
:1001E000088862B661B6BFF34F8FBFF36F8F00DF31
:1001F00000BF00BF08ED00E0EFF30980BFF36F8F91
:100200000F4B1A6820E9F00F106008B54FF050004E
:1002100080F31188BFF34F8FBFF36F8F05F00EF897
:100220004FF0000080F31188BDE8084019680868A5
:10023000B0E8F00F80F30988BFF36F8F704700BFFD
:1002400080000020EFF305807047000009488047D8
:1002500009480047FEE7FEE7FEE7FEE7FEE7FEE7A8
:10026000FEE7FEE7FEE7FEE704480549054A064BC0
:1002700070470000252E0008ED000008E047002030
:10028000E04D0020E0490020E04900200FB404497F
:1002900010B503AA029800F039FA10BC5DF814FBFF
:1002A000D84600202DE9F0410E4604460020206289
:1002B0002046E168884730B3252805D0D4E90121DC
:1002C0009047206A401CF2E7E168204600278847F3
:1002D000050018D0A5F14100192802D820354FF4A7
:1002E00000673246294620462760FFF739FF40B1B4
:1002F000012804D0F61D26F007060836D8E7361D7B
:10030000D6E72846DAE7206ABDE8F08170B50C46EA
:100310000546012A05D02878800600D5EA69002321
:1003200002E0012305E05B1C934202D2E05C00285E
:10033000F9D1A869E618C01AA861286A1844286289
:100340002846AFF3008004E0D5E9012114F8010B41
:100350009047B442F8D32846AFF3008070BD000048
:100360002DE9F0410646002410687529314616A58E
:1003700010D0AFF30080002802DA404213A507E056
:1003800031688A0701D512A502E0490704D511A5F5
:10039000012401E0AFF3008000210A2206F12407C6
:1003A00009E0B0FBF2FCB0FBF2F302FB1C003030C2
:1003B00078541846491C0028F3D123462A46304673
:1003C000BDE8F04100F033B9000000002D0000004E
:1003D0002B0000002000000070B504460D462146A9
:1003E0001068AFF300802188090502D50F4A7A44CE
:1003F00002E00E4A7A440E32002104F1240305E0A3
:1004000000F00F060009965D5E54491C0028F7D1E4
:1004100020780023000704D5702D02D009B10223F3
:1004200011322046BDE8704000F001B93269000089
:1004300030B505460B462A4613F8014B12F8010B5E
:1004400008B1A042F8D01CB1002802D06D1CF1E721
:10045000284630BD10B5431C02E010F8011B71B1F5
:100460008107FAD14FF0013202C88C1A8C4314EA8A
:10047000C211F9D0C01A0A0603D0C01E10BDC01A9E
:1004800010BD0A0401D0801E10BD0902FCD0401E20
:1004900010BD032A40F2308010F0030C00F01580EC
:1004A00011F8013BBCF1020F624498BF11F801CB77
:1004B00000F8013B38BF11F8013BA2F1040298BFDC
:1004C00000F801CB38BF00F8013B11F0030300F046
:1004D0002580083AC0F0088051F8043B083A51F8EA
:1004E00004CBA0E80810F5E7121D5CBF51F8043BEF
:1004F00040F8043BAFF30080D20724BF11F8013B62
:1005000011F801CB48BF11F8012B24BF00F8013BC3
:1005100000F801CB48BF00F8012B704710B5203A16
:10052000C0F00B80B1E81850203AA0E81850B1E8AC
:100530001850A0E81850BFF4F5AF5FEA027C24BF62
:10054000B1E81850A0E8185044BF18C918C0BDE859
:1005500010405FEA827C24BF51F8043B40F8043B22
:1005600008BF7047D20728BF31F8023B48BF11F8D7
:10057000012B28BF20F8023B48BF00F8012B704731
:100580004FF000020429C0F0128010F0030C00F0BC
:100590001B80CCF1040CBCF1020F18BF00F8012B3A
:1005A000A8BF20F8022BA1EB0C0100F00DB85FEA08
:1005B000C17C24BF00F8012B00F8012B48BF00F8D4
:1005C000012B70474FF0000200B513469446964643
:1005D000203922BFA0E80C50A0E80C50B1F1200156
:1005E000BFF4F7AF090728BFA0E80C5048BF0CC004
:1005F0005DF804EB890028BF40F8042B08BF704762
:1006000048BF20F8022B11F0804F18BF00F8012BD3
:10061000704770477047704710B500F089F8006860
:1006200010BD10B5044600F083F8046010BD2DE93C
:10063000F0470D4699469246044600F124080168A9
:10064000880604D5E06921F01001216000E0012056
:10065000A84201DD471B00E00027A1697A1902EBDF
:100660000900081AA0612078C00602D42046AFF322
:100670000080002608E0D4E901211AF8060090471E
:10068000206A401C761C20624E45F4DB2078C006B0
:100690000AD52046AFF3008006E0D4E901213020DE
:1006A0009047206A401C2062381EA7F10107F4DC45
:1006B00007E0D4E9012118F805009047206A401CA2
:1006C0002062281EA5F10105F3DC2046AFF300806F
:1006D0002078000602D50220BDE8F0870120FBE764
:1006E00010B5436913B1AFF3008001E0FFF70EFED0
:1006F000012010BD127800F124010A7000224A7016
:100700000122EDE711684FF0FF32E9E7074B70B5C2
:100710000D467B4400F015F80446284600F024F806
:1007200010B14FF0FF3070BD204670BDE3300000C7
:10073000004870478047002001694A1C0261087820
:10074000704700B58FB0CDE9013100210591054911
:100750007944CDE9031011466846FFF7A3FD0FB0B9
:1007600000BD0000E5FFFFFF007B00F08000704748
:1007700010B542485421FFF725FF41485421FFF7A7
:1007800021FF40485421FFF71DFF3F493B483C4AA9
:100790003F4B08603D490A603A491960531C0365A4
:1007A000481C1065012008653B48344A39A178444B
:1007B00000F022F920B9384878440A3800F0C1F92D
:1007C00037482F4A35A1784400F016F920B934484B
:1007D00078440A3800F0B5F932482A4A2FA1784403
:1007E00000F00AF920B92F4878440A3800F0A9F936
:1007F00040232248DC000021224600F0D9F820B135
:1008000025487844543800F09CF91D48224640237E
:10081000002100F0CDF820B121487844543800F090
:1008200090F9184822461023002100F0C1F8002852
:1008300006D01C487844BDE81040563800F081B915
:1008400010BD104870B5006D20F001040B4800F099
:1008500049F90B4800F046F90A4800F043F909E06D
:10086000206D20F00105204600F03CF9204600F004
:1008700078F82C46002CF3D170BD0000844600208F
:10088000D84600202C470020000100200401002051
:100890000801002072000000DE6500007700000003
:1008A000CA650000B66500000EB5CDE90001FFF78E
:1008B000D1FD029069460120ABBE0EBD08B5694668
:1008C00000900220ABBE08BD1FB58DE80700694649
:1008D0000520ABBE04B010BD1FB58DE80F00694602
:1008E0000620ABBEF6E708B5694600900920ABBE0E
:1008F00008BD1CB5CDE9000169460A20ABBE1CBD90
:10090000704708B5694600900C20ABBE08BD0000DA
:1009100000487047804700207546FFF7F9FFAE4654
:1009200005006946534620F00700854618B020B5FB
:10093000FFF79AFCBDE820404FF000064FF000079B
:100940004FF000084FF0000B21F00701AC46ACE877
:10095000C009ACE8C009ACE8C009ACE8C0098D46E4
:10096000704770B50446051F00F0F4F80068002CCD
:1009700014BF446870BD002C18BFAC423CBF204679
:100980006468F8D301680A18AA4218BF456003D109
:100990002A6805461144016028684119A1421CBF1C
:1009A0006C6070BD6168696021680844286070BD32
:1009B00070B5C468A50713D0650211D4B2F5807F65
:1009C00009D0B2F5007F06D0B2F5806F08D10123BF
:1009D00000F1240106E05D1E6FF07F46B54201D3B1
:1009E000012070BD0161C361416024F47061114355
:1009F000C160002070BD00002DE9F0410C460746A3
:100A00001646104600F06EF82078611C61280AD066
:100A1000722802D077283CD102E00125002405E0AD
:100A20000225042402E0082448F2020511F8010B13
:100A30002B2806D0622809D011F8010C74280AD09E
:100A40000BE045F0030544F00204EFE745F0040530
:100A500044F00104EAE744F0100438462146FFF769
:100A600023FF411C15D00021316171604FF40071EA
:100A7000F560F1617061200704D530460222002143
:100A800000F0E2F8306D40F0010030653046BDE81E
:100A9000F0810020FBE72DE9F0410D460646104CA1
:100AA000206DC10704D0410804D020F00104F7E70D
:100AB00022460EE0542000F098F807000ED0206D7A
:100AC00047F001010843542120653846FFF77AFDBD
:100AD0003A4629463046BDE8F0418DE70020D6E78A
:100AE000844600202DE9F04704464FF000094FF0FE
:100AF000FF37C568D4E90486A80707D0204600F070
:100B000053F93046FFF7DAFE002802DA3846BDE82E
:100B1000F087280502D54046FFF723FF4C212046E9
:100B2000FFF750FD206D20F0010020654846EEE7FC
:100B300010B50446AFF300802046BDE81040FFF733
:100B400032BB10B500F07AF9BDE8104000F070B982
:100B50007047000000487047884700207047704782
:100B60007047704738B504460A4600206946AFF31F
:100B70000080002808BF38BD02460099204600F0DA
:100B800084F9012038BD012000F0D3B9F8B5AFF3E6
:100B90000080054600200C46102000BF0646A8191C
:100BA000A0420DD9324669460020AFF3008007000D
:100BB00008BF00F0BEF90098A04218BF0546C4194E
:100BC000FFF7C8FF05600746F01D20F00700461933
:100BD000284600F053F9B44208BFF8BDA21B3146C5
:100BE0003868BDE8F84000F050B970B50646FFF728
:100BF000B1FF056806F10B0020F00704B4429CBF6A
:100C0000002070BD2B466A68BAB11068A04210D3AC
:100C100004F1080188423CBF5068586007D351680E
:100C2000101941601168091B016058601460101DA3
:100C300070BD13465268002AE7D121462846FFF7C7
:100C400091FF0028DED170BD2DE9F0410446164623
:100C50000D464769007B80072ED03846FFF743FEDC
:100C600050BB3EB3012E02D0022E25D104E0204617
:100C700000F025F905441DE03846FFF742FEE16823
:100C8000002841F01001E16005DA204600F058F834
:100C90000120BDE8F081C9030BD56268E16A914289
:100CA00000D81146A26911442269891A814200DDE7
:100CB00008460544002D01DA0220EAE7E16A60688F
:100CC000E268814206D29103E06203D522F400314A
:100CD00041F01002A6690027AE4213DCE16A8142AE
:100CE00001D90B4600E0034603EB060C2369ACEB8D
:100CF000030CAC4506DD814201D98C4600E08446F8
:100D00009C4505D1A760276042F02000A5620DE058
:100D1000AD1BE669AE1B8142A66000D90846C01A29
:100D2000281A20605819606022F02000034908400A
:100D3000E060002084F84870ABE70000BFCFD7FF29
:100D4000C16821F4001141F08001C160002181607F
:100D5000016070472DE9F047814614460E464FF07A
:100D6000FF383248D5685769054209D03846A1692D
:100D7000FFF7BFFD002811DB2C48C0430540E560AC
:100D80002B46324649463846FFF79EFDA16920F0C2
:100D90000042B21A11440028A16103D02046FFF797
:100DA000CFFF4046BDE8F08770B504460569C06ACC
:100DB0006168884200D80846E16821F42011E160AA
:100DC000C90312D5A84208D02246411B2846FFF786
:100DD000C1FF10B14FF0FF3070BD0020E562C4E9E3
:100DE0000150E06820F48030E060002070BD10B554
:100DF0000446C06820F02000E060A16AA069884233
:100E00000DD02046FFF7D0FFE06820F4405040F0BE
:100E10001000E060A06AA0612069E062606044F2B6
:100E20004001E0688843E06010BD0000100002004F
:100E3000002801D000F01CB87047000010B5014632
:100E400002A000F05DF8012010BD00005349475298
:100E5000545245443A2052656469726563743A207D
:100E600063616E2774206F70656E3A200000000089
:100E700001491820ABBEFEE72600020000210160F8
:100E8000C0E90110704710207047034640688C4647
:100E9000002818BF88423CBF03464068F8D3186852
:100EA0001844884207D00CF1030020F00700001D11
:100EB000411A521A0146081D0A60FFF752BD10B5CB
:100EC0000146C268900703D0900607D5886A0AE0F9
:100ED000FFF72EFC01210160881E10BD8B69486858
:100EE00018440B69C01A91F848301BB191F84910A9
:100EF000401A10BD1103FCD50028FADD401E10BDBC
:100F000070B505460C460A2000E06D1C00F018F88C
:100F100035B128780028F8D102E0641C00F010F800
:100F200014B120780028F8D1BDE870400A2000F004
:100F300007B810B500F00CF8BDE81040FFF778BF17
:100F400008B569468DF800000320ABBE08BD00005F
:100F500010B5012805D0002103A0FFF7D1FF012023
:100F600010BD09A1F8E7000053494752544D454DC3
:100F70003A204F7574206F662068656170206D653A
:100F80006D6F7279000000003A2048656170206D35
:100F9000656D6F727920636F72727570746564002D
:100FA000FEB5002517480095019515490295016089
:100FB00089158160057301240475022606614FF4CA
:100FC00060214560C0E9064100F08AF908B100F0EF
:100FD0008BF807200095CDE901406946094800F0EB
:100FE000FDF808B100F080F8CDE9004669460548F3
:100FF00000F0F4F8002801D000F076F8FEBD000003
:10100000002401402445002070B504460068816832
:10101000C943C90717D1816821F00101816000F03F
:10102000ADFC05460AE000BF00F0A8FC401B02280A
:1010300004D920688068C043C00706D02068806853
:10104000C043C007F0D0002070BDA06A40F010007F
:10105000A062E06A40F00100E062012070BD000083
:10106000F8B500260446009600688168C943C907A0
:101070002DD0816841F00101816016481649006851
:10108000B0FBF1F000E0401E00900028FBD100F022
:1010900075FC054616E000BF00F070FC401B0228FE
:1010A00010D920688068C043C0070BD0A06A40F008
:1010B0001000A062E06A40F00100E06284F8246061
:1010C0000120F8BD20688068C043C007E4D100203B
:1010D000F8BD00007C00002040420F00FEE7704792
:1010E0004FF4807000F044BB72B6FEE72DE9F04388
:1010F00085B00024354800940194029403948169DA
:1011000041F020018161816901F020010491816930
:1011100041F004018161816901F004010491816958
:1011200041F0080181618069DFF8A48000F00800C7
:10113000049000224FF6C171404600F01AFC0122D3
:101140000221404600F015FCDFF888904FF400675C
:1011500000223946484600F00CFC102001258DE89D
:1011600031006946484600F00FFB0320CDE9000539
:101170000226CDE902566946404600F005FB4FF6CF
:10118000C070CDE90005CDE902466946404600F051
:10119000FBFA280200901048CDE901046946484650
:1011A00000F0F2FA00970396CDE9015469464846EB
:1011B00000F0EAFA00220521172000F07DFC17203C
:1011C00000F06CFC05B0BDE8F083000000100240A8
:1011D000000C01400008014000001110F8B5002487
:1011E000009490F824202546012A12D0012280F88C
:1011F00024204A681F23072A0DD20668776B521EE7
:1012000002EB820293409F430B6893401F43776336
:1012100019E00220F8BD06680D2A0AD2376BD21FEA
:1012200002EB820293409F430B6893401F43376356
:1012300009E0F76A0D3A02EB820293409F430B6884
:1012400093401F43F7620A68072306680A2A0AD3F5
:10125000F7680A3A02EB420293409F438B6893403F
:101260001F43F76008E0376902EB420293409F4357
:101270008B6893401F4337610A68102A01D0112AF6
:1012800020D1124B02689A4217D193681B0219D4DD
:10129000936843F4000393600968102912D10C4944
:1012A0000C4A0968B1FBF2F101EB8101490000E051
:1012B000491E00910029FBD104E0816A41F0200120
:1012C0008162012480F824502046F8BD00240140AA
:1012D0007C00002040420F000068C06C7047000096
:1012E0002DE9F0414FF0000704003D467ED0A06A92
:1012F000002628B9E66284F82460204600F07EF8D3
:101300002046FFF781FEA16AC90600D420B1A06A79
:1013100040F01000A06269E0A16A21F4885141F018
:101320000201A1626268E169237B0A4347EA430143
:101330000A43A1684FF48077B94209D0012907D048
:101340005FF0000194F814C0BCF1010F02D00AE074
:101350003946F7E7F3B1A36A43F02003A362E36AD7
:1013600043F00103E3622368D3F804C02CF4694C12
:101370004CEA010CC3F804C021688B68DFF870C028
:1013800003EA0C0313438B60A168B9420BD0012917
:1013900009D00CE0DFF85CC0A3690CEB43330B43CE
:1013A00043F40061DFE7218A0D05A5F5801521686A
:1013B000CB6A23F470032B43CB62216889680E4B00
:1013C0001940914208D1E662A16A21F0020141F080
:1013D0000101A162BDE8F081A06A20F0020040F0A6
:1013E0001000A062E06A40F00100E0620120F1E735
:1013F000FDF7E1FF00E0FFFFFE0E1FFF00B585B027
:101400000021009101910291039100680E498842E8
:1014100017D10E48816941F400718161816901F43D
:1014200000710491816941F004018161806969461C
:1014300000F004000490032000900190044800F0A4
:10144000A3F905B000BD00000024014000100240D7
:10145000000801402DE9F84300270D460446009797
:1014600000F08CFA804620688168C90508D5A06A1A
:1014700040F02000A06284F824700120BDE8F883C9
:101480004168C90503D4C06A10F4700F2AD0022045
:1014900000F044FB3B490968B1FBF0F620680369A2
:1014A00039490B424FEA61014FEAA1121FD1C368CB
:1014B0004FEA611C13EA0C0F19D103690B4225D1C5
:1014C000C068104222D1142023E0681C0AD02DB13C
:1014D00000F054FAA0EB0800A84203D92068006885
:1014E000800725D5206800688007EED52DE00369C8
:1014F0000B4202D1C168114206D0026923490A4257
:1015000006D1C068084203D1542002E0292000E03F
:10151000FC204643009816E0681C11D02DB100F065
:101520002DFAA0EB0800A8420AD90098B04207D2D1
:10153000A06A40F00400A06284F8247003209DE7B4
:101540000098401C0090B042E6D321686FF0120072
:101550000860A06A40F40070A06220688068C0F350
:10156000424007280CD1207B50B9A06A20F480703B
:10157000A062A06AC00403D4A06A40F00100A06287
:1015800000207BE77C00002024499224499224001B
:1015900070B5044690F8240001280DD0012084F88D
:1015A00024002046FFF75CFD02004FF0000005D04C
:1015B00084F82400104670BD022070BDA16A40F27C
:1015C0000123994341F48071A1621F4D23681F4993
:1015D000AB4218D10E6816F4702F14D0A66A46F4E8
:1015E0008016A6620E68760505D5A66A26F4005612
:1015F00046F48056A662A66AF6040AD5E66A26F084
:101600000606E66206E0A66A26F48016A6625E6812
:10161000E9E7E06284F824006FF0020018602068B7
:101620008368C3F34243072B05D1A84208D1096858
:1016300011F4702F04D0816841F480118160B9E702
:10164000816841F4A001F9E7002801400424014029
:1016500010B5044690F82400012807D0012084F832
:1016600024002046FFF7D0FC10B107E0022010BD97
:10167000A16A21F4885141F00101A162002184F89E
:10168000241010BD10B590F821100022022905D0B9
:101690000421816380F82020012010BD01680B68BF
:1016A00023F00E030B6001680B6823F001030B604D
:1016B00090F84030C46B012101FA03F3636080F8B5
:1016C000211080F82020104610BD000010B590F8C1
:1016D00021100024022903D00421816301243DE06C
:1016E00001680A6822F00E020A6001680A6822F0A6
:1016F00001020A601A4A0168914201D1012121E0E8
:10170000174A1432914201D110211BE0144A2832A9
:10171000914201D1891515E0114A3C32914201D123
:1017200089140FE00E4A5032914202D14FF48031B9
:1017300008E00B4A6432914202D14FF4801101E07B
:101740004FF08071064A083A5160012180F821105B
:10175000002180F82010416B01B18847204610BD60
:1017600008000240C00502D5012003F0FFBA70470F
:10177000044910B50A68024202D00860FFF7F2FF80
:1017800010BD0000140401402DE9F84FDFF8B891B6
:101790000024A9F1040B23460F2709F1040AABF139
:1017A000040EC9E00125A5402A40AA427DD1674E1A
:1017B000D1F804C0ACEB0608B44532D014DCBCF15F
:1017C000030F3AD009DCBCF1000F2AD0BCF1010FA5
:1017D0001CD0BCF1020F31D11DE0BCF1110F17D0AC
:1017E000BCF1120F2AD119E0B8F5881F19D006DC18
:1017F000B8F5803F15D0B8F5801F1FD111E0B8F5BE
:10180000001F0ED0B8F5041F18D10AE0CB6815E010
:10181000CB681B1D12E0CB6808330FE0CB680C339C
:101820000CE08B682BB1012B4FF0080303D045610E
:1018300004E0042302E0056100E00023FF2A01D850
:10184000064601E000F104064FEA840501D9A5F13E
:101850002005D6F8008007FA05FC28EA0C0803FAF0
:1018600005F548EA0508C6F800804D68ED0062D528
:10187000374DAE6946F00106AE61AD6924F003064E
:1018800005F001050095334D06EB050CDCF808501A
:10189000A607360F07FA06F825EA0805DFF8B8802C
:1018A000404503D14FF0000817E044E0DFF8AC807A
:1018B000404502D14FF001080FE0DFF8A480404519
:1018C00002D14FF0020808E0DFF89880404502D1CD
:1018D0004FF0030801E04FF0040808FA06F848EA60
:1018E0000508CCF808804D68D9F80060ED024D4637
:1018F00001D5164300E096432E604D68DAF800608B
:10190000AD02554601D5164300E096432E604D6862
:10191000DBF80060AD035D4601D5164300E0964359
:101920002E604D68DEF80060ED03754601D5164364
:1019300000E096432E60641C0D682A46E5407FF463
:1019400031AFBDE8F88F000008040140000011101D
:10195000001002400000014000080140000C01405E
:1019600000100140001401408068084000D00120B0
:1019700070470AB1016170470904FBE701488068BC
:10198000704700007000002002488168027811440E
:101990008160704770000020074810B5016841F071
:1019A00010010160032000F0A7F80F2000F006F8F6
:1019B00000F050F8002010BD0020024030B5054670
:1019C0001F4887B0C16941F00401C161C06906A91F
:1019D00000F00400009001A800F0FEF90498B0B1F6
:1019E00000F01AFA40001749174AB0FBF1F1174806
:1019F000491E0260416040F2E7320021C0E9032144
:101A00008160816100F050FD040003D015E000F01A
:101A100003FAE8E70D4800F089FD04000DD11E200F
:101A200000F03CF8102D07D2002229461E2000F0BD
:101A300043F80748056000E0012407B0204630BDA8
:101A40000010024040420F0000080040B407002090
:101A5000740000200F4808B5816941F001018161DF
:101A6000816901F001010091C16941F08051C161BA
:101A7000C069002200F0805000900F21901E00F0FD
:101A80001BF80548416821F0E06141F000714160B8
:101A900008BD00000010024000000140002809DBE2
:101AA00000F01F02012191404009800000F1E02078
:101AB000C0F8001170470000F0B40E4B1B680C46D4
:101AC000C3F30223C3F10705042D00D90425191D12
:101AD000072901D2002300E0DB1E012606FA05F1EA
:101AE000491E214099409E40761E16403143F0BC6D
:101AF00001F0C5BB0CED00E0064900F007020868E4
:101B00004FF6FF03184040EA0220034A10430860E2
:101B1000704700000CED00E00000FA0510B501462A
:101B20000020234C012922D0022939D010291DD1AF
:101B300061682268D20119D51E48C1F38342C903E6
:101B4000805C0AD561681B4AC1F34041921E515C1A
:101B5000194AB2FBF1F1484301E018494843616872
:101B6000490203D440000321B0FBF1F010BD226A0A
:101B7000C2F30121012903D1920701D5C80310BD89
:101B8000022905D1626A920702D549F6404010BD8C
:101B90000329FCD121688903F9D54FF2244010BDF7
:101BA00000F04AF96168C1F38131491C4900DBE763
:101BB00000100240FC6C000800127A0000093D0091
:101BC0002DE9F84305460078354CC00754D0E0694C
:101BD0000026C00008D4E06940F08050E061E06970
:101BE000012600F0805000902E480168C90512D4EB
:101BF0000168804641F480710160FFF7BFFE07462F
:101C000005E000BFFFF7BAFEC01B642823D8D8F850
:101C10000000C005F6D5206A10F4407021D0A988D4
:101C200001F4407181421CD0206A1F49012220F436
:101C300040700A6000220A602062C00711D0FFF7DE
:101C40009DFE074641F2883808E000BFFFF796FE88
:101C5000C11B414502D90320BDE8F883206A8007F3
:101C6000F4D5206A696820F44070084320621EB1F0
:101C7000E06920F08050E0612878800705D5606831
:101C8000A96820F44040084360602878C00605D564
:101C90006068E96820F48000084360600020DBE7AA
:101CA0000010024000700040400442422DE9F0471D
:101CB0000F46050061D0434E306800F00700B8427F
:101CC00009D2306820F0070038433060306800F0F7
:101CD0000700B84251D128683B4C810712D5400714
:101CE00003D5606840F4E06060602878000703D5A1
:101CF000606840F4605060606068A96820F0F0009F
:101D0000084360602878C00728D06868012810D090
:101D10002168022810D0890700292EDA616821F095
:101D2000030101436160FFF729FE804641F28839D3
:101D30000DE021688903EFE78901EDE7FFF71EFE5B
:101D4000A0EB0801494502D90320BDE8F08760688F
:101D5000696800F00C00B0EB810FEFD1306800F043
:101D60000700B8420BD9306820F0070038433060D4
:101D7000306800F00700B84201D00120E5E728787C
:101D8000400705D56068E96820F4E06008436060BA
:101D90002878000706D56068296920F4605040EA79
:101DA000C100606000F058F86168084AC1F303118F
:101DB000515CC8400649086006480068FFF7FEFD10
:101DC0000020C2E700200240001002400C6D000815
:101DD0007C000020740000200F2202600C4A53682F
:101DE00003F003034360536803F0F0038360536818
:101DF00003F4E063C36052684FF4E06303EAD20285
:101E000002610448006800F00700086070470000A5
:101E1000001002400020024004480549006849685B
:101E2000044AC1F30221515CC84070477C00002085
:101E3000001002401C6D000804480549006849680C
:101E4000044AC1F3C221515CC84070477C000020A5
:101E5000001002401C6D00080E4A51680E4801F047
:101E60000C03042B11D0082B0FD10C48C1F3834372
:101E7000C903C05C0AD55168084AC1F34041921EAB
:101E8000515C054A5043B0FBF1F0704704494843A8
:101E9000704700000010024000127A00EA6C00084F
:101EA00000093D002DE9F84F040070D02078C04DA6
:101EB000C00749D06868C0F38100012807D068686E
:101EC000C0F38100022809D16868C00306D52868DC
:101ED000800339D560680028E7D035E06068B0F548
:101EE000803F0BD010B1B0F5A02F11D0286820F49E
:101EF00080302860286820F4802002E0286840F4C0
:101F000080302860606890B1FFF738FD06460AE02F
:101F1000286840F480202860F0E700BFFFF72EFD1E
:101F2000801B642873D828688003F7D50CE0FFF77E
:101F300025FD064605E000BFFFF720FD801B642855
:101F4000F0D828688003F7D420789A4E80074FF0A5
:101F500001094FF0000839D5686810F00C0F07D060
:101F60006868C0F38100022809D16868C00306D4FC
:101F70002868800714D52069012808D110E020695D
:101F8000B0B1C6F80090FFF7F9FC074605E00AE19A
:101F9000FFF7F4FCC01B0228C4D828688007F7D5D7
:101FA0002868616920F0F80040EAC10028600DE06F
:101FB000C6F80080FFF7E2FC074604E0FFF7DEFC0E
:101FC000C01B022823D828688007F7D42078000790
:101FD0002CD57948A169D9B1C0F80090FFF7CEFCA3
:101FE000074604E0FFF7CAFCC01B02280FD8686A46
:101FF0008007F7D571484FF4FA510068B0FBF1F053
:10200000009000BF0098411E0091FAD20EE080E0DF
:10201000C0F80080FFF7B2FC074604E0FFF7AEFC13
:10202000C01B022875D8686A8007F7D4207840075B
:1020300060D5E8690027C00008D4E86940F0805006
:10204000E861E869012700F0805000905C48016871
:10205000C90513D40168834641F480710160FFF71C
:102060008DFC824606E000BFFFF788FCA0EB0A006B
:1020700064284ED8DBF80000C005F5D5E0680128DB
:102080000AD008B1052813D0286A20F00100286280
:10209000286A20F0040002E0286A40F0010028626B
:1020A000E06841F2883B98B1FFF768FC82460BE09C
:1020B000286A40F004002862EEE700BFFFF75EFCEC
:1020C000A0EB0A0159455AD8286A8007F6D50CE0DA
:1020D000FFF754FC824605E0FFF750FCA0EB0A0135
:1020E00059454CD8286A8007F6D41FB1E86920F01A
:1020F0008050E861E06988B36968C1F38101022911
:1021000044D00228C6F8608004D0FFF737FC0446AC
:1021100038E034E0FFF732FC074604E0FFF72EFC1E
:10212000C01B02282BD828688001F7D4206AB0F59C
:10213000803F05D16868A16820F4003008436860DA
:10214000D4E908010843696821F474110843686000
:10215000C6F86090FFF712FC044606E025E000BFD9
:10216000FFF70CFC001B022809D828688001F7D56E
:102170001BE000BFFFF702FC001B022802D903206E
:10218000BDE8F88F28688001F4D40EE00128F7D06C
:102190006868226A00F48031914204D1616A00F4D7
:1021A0007010884201D00120EAE70020E8E7000033
:1021B0000010024000004242800442427C000020A5
:1021C0000070004070B5040009D0606A002540B17D
:1021D00025616561A56294F8510040B10CE00120D1
:1021E00070BD6068B0F5827FF4D0E561F2E784F8F5
:1021F0005050204600F040F8022084F8510020683A
:10220000016821F040010160A088218900F48270FA
:1022100001F404410843A18901F400610843217CD1
:1022200001F002010843217D01F001010843218BE7
:1022300001F400710843217F01F03801084394F84C
:10224000201001F080010843218D01F40051084362
:1022500021680860A069042101EA104021684860F3
:102260002068C16921F40061C1616565012084F8BD
:102270005100002070BD000000B585B00021009124
:1022800001910291039100680F4988421AD10F48C9
:10229000816941F480518161816901F48051049127
:1022A000816941F0040181618069694600F00400A0
:1022B0000490A02000900220019003200390044885
:1022C000FFF762FA05B000BD003001400010024087
:1022D000000801402DE9F84F984616468A46044604
:1022E000FFF74CFB814694F8510001281ED1BAF14A
:1022F000000F73D0002E71D094F85000012815D033
:10230000012784F85070032084F85100002565658A
:10231000C4F830A0A686E686A563A587E587656430
:102320002564A068B0F5004F03D00CE00220BDE8A2
:10233000F88F2068016821F0400101602068016881
:1023400041F48041016020680168490603D40168B6
:1023500041F040010160E068B0F5006F606803D0B3
:1023600048B3012E27D047E008B1012E1FD1206BC2
:1023700021680088C86006E020688168890709D55F
:10238000216B0988C160206B801C2063E08E401E99
:10239000E0860CE0FFF7F2FAA0EB0901414503D318
:1023A000B8F1FF3F03D035E0B8F1000F32D0E08E36
:1023B0000028E1D123E0206B21680078087306E053
:1023C0002068816889070AD5216B09780173206B21
:1023D000401C2063E08E401EE0860DE02BE0FFF7FE
:1023E000CDFAA0EB0901414503D3B8F1FF3F03D07B
:1023F00010E0B8F1000F0DD0E08E0028E0D14A4681
:102400004146204600F042FC08B120206065A068EB
:1024100030B109E084F8517084F85050032086E709
:102420002068C1688068009084F8517004F8505F9B
:1024300060680028F3D0012079E7704770470000FA
:1024400070B590F83C20012A26D0012480F83C4049
:10245000022280F83D2003685A689D6822F07006C9
:102460000A6832435A600D4B02689A4208D0B2F1B2
:10247000804F05D00A4B9A4202D00A4B9A4204D1AF
:10248000496825F080031943916080F83D400021A0
:1024900080F83C10084670BD022070BD002C014041
:1024A000000400400008004010B5040003D094F878
:1024B0003D0010B107E0012010BD002084F83C0071
:1024C000204600F01FF8022084F83D00211D2068FE
:1024D00000F0E4FC012084F8460084F83E0084F813
:1024E0003F0084F8400084F8410084F8420084F8FA
:1024F000430084F8440084F8450084F83D0000203F
:1025000010BD000008B500680649884208D1064899
:10251000816941F400618161806900F4006000908C
:1025200008BD0000002C01400010024090F83D1052
:10253000012901D001207047022180F83D10016877
:10254000CA6842F00102CA6000680B49884208D09C
:10255000B0F1804F05D00949884202D0084988422D
:1025600004D1816801F00701062903D0016841F018
:102570000101016000207047002C01400004004070
:102580000008004070B5044690F83C000025012882
:1025900017D0012684F83C60022084F83D002068B2
:1025A000826822F0770222F47F4282600868502815
:1025B00038D00DDC20284FD005DC90B3102811D185
:1025C0004AE0022070BD302846D040280AD13BE0C6
:1025D00060282FD070280DD0B0F5805F03D0B0F503
:1025E000005F12D0012584F83D60002084F83C0093
:1025F000284670BDCB68D1E90121206800F08AFC33
:102600002068816841F0770109E0CB68D1E90121B8
:10261000206800F07FFC2068816841F4804181607F
:10262000E1E719E0CA684968206800F085FC50219C
:10263000206806E0CA684968206800F08EFC6021C6
:10264000206800F071FCCEE7CA684968206800F095
:1026500073FC40212068F4E7226801461046F0E749
:1026600070472DE9F04104460068C66805694FF0DF
:102670000007A90713D5B10711D5F91E0161012083
:102680002077206880698007204602D0FFF7E8FFA6
:1026900004E000F07EF8204600F07CF82777680719
:1026A00016D5700714D521686FF004000861022068
:1026B00020772068806910F4407F204602D0FFF721
:1026C000CFFF04E000F065F8204600F063F82777BC
:1026D000280715D5300713D521686FF00800086169
:1026E000042020772068C0698007204602D0FFF7C9
:1026F000B7FF04E000F04DF8204600F04BF82777D4
:10270000E80616D5F00614D521686FF010000861B0
:10271000082020772068C06910F4407F204602D04E
:10272000FFF79EFF04E000F034F8204600F032F896
:102730002777E80708D0F00706D021686FF001007E
:102740000861204600F028F8280608D5300606D58E
:1027500021686FF0800008612046FFF76EFE680672
:1027600008D5700606D521686FF040000861204644
:1027700000F01CF8A8060AD5B00608D521686FF04D
:10278000200008612046BDE8F041FFF757BEBDE8D4
:10279000F08170477047000000680349884201D10A
:1027A000FFF7F2B87047000000080040704770471C
:1027B00070470000F8B5016804460868CA684B69AC
:1027C00010F00F0F4FF0000559D003F0010602F48E
:1027D0009077374365D0C10705D0D10503D5616C2B
:1027E00041F001016164410705D5D90703D0616C4F
:1027F00041F002016164810705D5D90703D0616CFE
:1028000041F004016164010707D502F02001314362
:1028100003D0616C41F008016164616C00293AD019
:10282000800604D5900602D5204600F0D7FB20682C
:102830004069616CC0F38010090700D460B3204682
:1028400000F0A5FB20684069400621D520681430BF
:1028500050E8001F21F0400140E80012002AF5D1A5
:10286000E06BA8B16D494163E06BFEF72FFF0028D4
:1028700011D0E06B416B01B0BDE8F0400847830622
:102880000FD593060DD52046BDE8F84000F0A6BB55
:102890002046FFF78DFFF8BD2046FFF789FF6564EE
:1028A000F8BD266B2023012E7CD1C6067AD5D6062C
:1028B00078D508684868009048694FF002064006DD
:1028C00040D5E16B086840680004000CE8D0A28D98
:1028D0008242E5D9E085886920282DD020680C3017
:1028E00050E8001F21F4807140E80012002AF5D161
:1028F0002068143050E8001F21F0010140E8001268
:10290000002AF5D12068143050E8001F21F0400162
:1029100040E80012002AF5D184F84230256320688F
:102920000C3050E8001F21F0100140E80012002A8E
:10293000F5D1E06BFEF7A6FE6663A08DE18D401A2F
:1029400081B22AE0A08DE18D401A81B2E08D00288D
:10295000A6D00029A4D022680C3252E8000F20F43F
:10296000907042E80007002FF5D12068143050E83D
:10297000002F22F0010240E80027002FF5D184F853
:102980004230256320680C3050E8002F22F01002FE
:1029900040E80023002BF5D166632046FFF707FFD0
:1029A000F8BDFFE705062BD5150629D594F841009B
:1029B0002128F5D1A068B0F5805F01D12069B0B1C0
:1029C000206A411C2162216800784860E08C401E2A
:1029D0000004000CE084E3D12068C16821F080018C
:1029E000C1602068C16841F04001C160D8E7206A39
:1029F0000088C0F308004860206A801C2062E5E778
:102A00004006CDD55006CBD5CA68204622F04002FC
:102A1000CA6084F8413000F00FF9C1E77F2F000849
:102A200070B5040004D094F84100002510B106E010
:102A3000012070BD84F84050204600F023F8242087
:102A400084F841002068C16821F40051C16020462B
:102A500000F026FB2068016921F4904101612068A3
:102A6000416921F02A0141612068C16841F40051A7
:102A7000C1606564202084F8410084F842006563E9
:102A8000002070BD70B586B00024009401940294BB
:102A900003942B4E03682B49022003222A4DB34294
:102AA00021D18B6943F480438B618B6903F48043AC
:102AB00004938B6943F004038B618969039201F0ED
:102AC000040104910102CDE9001069462846FEF791
:102AD0005BFE2815CDE90004694628460294FEF7FE
:102AE00053FE06B070BD194EB342FAD1CB6943F420
:102AF0000033CB61CB6903F4003304938B6943F05B
:102B000004038B618969039201F00401049104219B
:102B1000CDE9001069462846FEF736FE0820CDE9CB
:102B20000004694628460294FEF72EFE0022052185
:102B30002620FEF7C1FF2620FEF7B0FFD1E70000F8
:102B400000380140001002400008014000440040ED
:102B500090F84230202B01D00220704721B11AB1E9
:102B60000023036300F0F8BA0120704710B5044653
:102B70000068074988420AD10648007800F00EFC38
:102B80002046BDE8104001220249FFF7E1BF10BD19
:102B900000440040FC0000202DE9F843044690F872
:102BA0004100984616460D46202802D00220BDE876
:102BB000F88385B17EB100206064212084F8410053
:102BC000FEF7DCFEA6848146E684A0682027B0F5E7
:102BD000805F02D003E00120E9E7206910B12E46B2
:102BE00000250EE000260CE08021204600F0CFFA00
:102BF000A8B9C6B116F8010B21684860E08C401EE8
:102C0000E084E08C4B464FF00002CDF800800028B5
:102C1000EAD14FF04001204600F0B9FA40B184F803
:102C200041700320C3E735F8020BC0F30800E3E767
:102C300084F841700020BAE77047FEE7FEE7FEE740
:102C4000114810B50F4901604FF4827141604FF493
:102C5000004181600021C1604FF400720161C0E950
:102C600005120822C0E90721416281620A21C1627E
:102C7000FFF7A8FA002803D0BDE81040FEF734BAE9
:102C800010BD00000030014054450020F8B5154645
:102C90000E460B46009204460122022100F010F875
:102CA00040B93346002280212046009500F008F804
:102CB000002804D0606D40F0200060650320F8BD5E
:102CC0002DE9F8431E46914688460446089DFEF7C6
:102CD00055FE401B351AFEF751FE07462548006891
:102CE000C0F3CB30684338E0701C37D0FEF746FEA7
:102CF000C01BA84203D215B1009860B32CE0206835
:102D0000416821F0E00141606068B0F5827F0BD13D
:102D1000A068B0F5004F02D0B0F5806F04D12068F4
:102D2000016821F040010160A06AB0F5005F09D19F
:102D30002068016821F4005101602068016841F4B5
:102D400000510160012084F85100002084F85000F7
:102D50000320BDE8F8830025401E009020688168AC
:102D600038EA010004D000214945BDD10020F0E738
:102D70000121F9E77C000020012001F073F9FBE755
:102D800010B5502080F31188BFF34F8FBFF36F8FC2
:102D900002F0C0FD18B104494FF0805008600020D7
:102DA00080F3118810BD000004ED00E030B593B051
:102DB00028216846FDF706FC14210AA8FDF702FC4D
:102DC000002501200F9510951195010412958DE8AD
:102DD000230004904FF4E010CDE90810022407947A
:102DE0006846FFF75FF808B172B6FEE70AA90F2040
:102DF00081E831004FF48060CDE90D0502210AA879
:102E0000FEF754FF08B172B6FEE74FF40040119090
:102E10000F940FA8FEF7D4FE002801D072B6FEE78B
:102E200013B030BD7047000010B586B000241748BD
:102E3000009401940294039404941349059401604E
:102E40004721C0E901144FF6FF71C0E90314446142
:102E50008461FFF729FB08B1FEF746F94FF4805073
:102E6000009069460948FFF78DFB08B1FEF73CF971
:102E7000049404A905480594FFF7E2FA002801D05C
:102E8000FEF732F906B010BD002C01403C46002090
:102E90000148FFF7E6BB0000B4070020F0B5026868
:102EA000194B1A4C1A4D4FF08047984205D0B84242
:102EB00003D0A04201D0A84203D122F070064A6894
:102EC0003243984205D0B84203D0A04201D0A84274
:102ED00003D122F44074CA6822434C6922F0800274
:102EE000224302608A68C2620A688262984201D103
:102EF00009690163012141610169C90703D00169C1
:102F000021F001010161F0BD002C014000040040EE
:102F10000008004010B5846842EA032224F47F448C
:102F20000A432243826010BD826822F070020A4385
:102F300042F007018160704710B5036A046A24F00B
:102F400001040462846924F0F00444EA021423F0CA
:102F50000A020A438461026210BD10B5036A046A62
:102F600024F010040462846923F0A00324F4704464
:102F700044EA023243EA01118261016210BD10B5D8
:102F8000406A0021C185C184FFF712FC10BD0168B1
:102F90000C3151E8002F22F4907241E80023002BFD
:102FA000F5D10168143151E8002F22F0010241E807
:102FB0000023002BF5D1016B012909D101680C31E7
:102FC00051E8002F22F0100241E80023002BF5D138
:102FD000202180F8421000210163704708B590F865
:102FE0004210222901D0022008BD82684FF480538C
:102FF0009A4201D1016921B1816A9A421BD04AB13A
:103000000AE00268816A5268C2F308020A80816A93
:10301000891C08E0026972B10268526802F07F02FE
:103020000A70816A491C8162C18D491E0904090C1C
:10303000C18503D01BE002685268F1E70168CA68E5
:1030400022F02002CA600168CA6822F48072CA6055
:1030500001684A6922F001024A61202180F8421089
:1030600000214163026B012A03D0FFF77FFD00209E
:1030700008BD016301680C3151E8002F22F01002F5
:1030800041E80023002BF5D101680A68D20602D579
:103090000A6849680091818DFFF789FBE7E7000026
:1030A00070B5044600680169E26821F4405111439B
:1030B00001612169A0680843616908432168CA6801
:1030C00041F20C639A430243CA6020684169A269D5
:1030D00021F44071114341611E492068884202D1A8
:1030E000FEF7AAFE01E0FEF797FE00EBC00101EB40
:1030F0000012606864218000B2FBF0F3B3FBF1F3CF
:103100006FF018067343B2FBF0F5B2FBF0F605EB77
:103110008305322303EB0515B5FBF1F5B6FBF1F69C
:1031200005F0F00505EB0615B2FBF0F6B2FBF0F08A
:10313000B0FBF1F06FF01802504306EB800003EB98
:103140000010B0FBF1F0216800F00F002844886007
:1031500070BD00000038014081628285C285002177
:103160004164222180F84210016921B10168CA68D6
:1031700042F48072CA6001684A6942F001024A6101
:103180000068C16841F02001C160002070472DE94E
:10319000F843984617460D460446089E24E0701CE6
:1031A00022D0FEF7EBFBA0EB0800B0421AD8CEB15C
:1031B0002068C168490717D5802D15D0402D13D040
:1031C0000168C94309070FD40168002540680090D1
:1031D0002046FFF7DCFE0820606484F840500120A0
:1031E000BDE8F8830320FBE72068006835EA0000AB
:1031F00004D00020B842D2D00020F1E70120F9E746
:103200000C4810B50A4901604FF4E13141600021DA
:1032100081600C22C160C0E904128161C161FFF7C5
:10322000FFFB002803D0BDE81040FDF75DBF10BDD7
:1032300000380140AC4500200148FFF7BBBA000050
:10324000F44500200C4810B50A4901604FF4E13103
:103250004160002181600C22C160C0E904128161DB
:10326000C161FFF7DDFB002803D0BDE81040FDF78A
:103270003BBF10BD00440040F4450020FEE70907B5
:10328000090E002804DB00F1E02080F800147047EC
:1032900000F00F0000F1E02080F8141D70472DE9C8
:1032A000F0414F1E00EBC7010446D1E9000115466D
:1032B0001E4637F006020DD02A46334602F0A4FF20
:1032C0007F1E04EBC703D3E9002302F035FD37F07E
:1032D0000602F1D1022F25D0042F13D0062F18BFDC
:1032E000BDE8F0812A46334602F08EFFD4E90A2376
:1032F00002F022FD2A46334602F086FFD4E9082375
:1033000002F01AFD2A46334602F07EFFD4E9062376
:1033100002F012FD2A46334602F076FFD4E9042378
:1033200002F00AFD2A46334602F06EFFD4E902237A
:1033300002F002FD2A46334602F066FFD4E900237C
:10334000BDE8F04102F0F8BC0022134610460149E6
:1033500002F0AEBD0000F03F012203F046BC0022A7
:1033600013461046114602F0A3BD70B50268002650
:10337000134635460AE050F82540944201D22246D1
:1033800002E09C4200D9234626446D1C8D42F2DBAC
:10339000D018301A891EB0FBF1F070BD2DE9F04154
:1033A000584C0746564EA0780025375420780528FB
:1033B00031D055A13046FDF73BF818B3A570302148
:1033C0003046FDF7DDF8207868B1012810D00228DA
:1033D00013D003281DD16570042020704CA0BDE8D7
:1033E000F041FCF753BF6570012020704CA0F6E758
:1033F0006570022020704EA0F1E7657003202070F8
:1034000050A0ECE7A078401CC0B2A070302800D1DA
:10341000A570BDE8F081A62F06D0E5704EA1384812
:10342000FDF706F870B903E0E078401CE070F5E7BE
:103430004CA13348FCF7FCFF20B94EA13048FCF703
:10344000F7FF38B12E494FA0FCF720FF52A0FCF740
:103450001DFF3AE0A178042902D02F292BD00BE0E0
:103460003078A52808D17078A52805D1B078A5288E
:1034700002D1F078A52805D0491CC8B2A070302828
:1034800029D029E03A4649A0FCF700FF307901280D
:103490000DD002280DD0642001F06EFCA570302103
:1034A0001748FDF76DF847A0FCF7F0FE14E01E206A
:1034B000F2E73C20F0E7474800231A46104900682D
:1034C00002F086F8A088401CA080A57030210C482E
:1034D000FDF756F800E0A570E078042899D1A1889E
:1034E0003DA0FCF7D3FEE570A580A570302104480F
:1034F000FDF746F8BDE8F041012001F053BC0000A3
:10350000FC0700203C0000204F4B0D0A000000008B
:10351000CDCBB3F64154C4A3CABDB3C9B9A60A0002
:10352000B3C9B9A6BDF8C8EB4154C4A3CABD0A00CB
:10353000B9D8B1D5D7B4CCACCFD4CABEB3C9B9A66B
:103540000A000000C9E8D6C3C9E8B1B8C3FBB3C6D6
:10355000B3C9B9A60A000000434F4E4E4543544537
:1035600044000000444953434F4E4E4543544544A4
:1035700000000000444556494345204552524F52F1
:1035800000000000CEDEB9D8D7B4CCACD0C5CFA2F5
:10359000CEAA25730A000000C7E5B3FDCEDEB9D878
:1035A000D7B4CCACD0C5CFA20A000000B5B1C7B02B
:1035B000696E646578CEAA25752CCAFDBEDDCEAADB
:1035C00025580A00C8C8C3DCB6C8C9E8D6C3B3C901
:1035D000B9A60A006C000020CDBCC6ACB4ABCAE4EE
:1035E000BDE1CAF8A3ACD7DCD0D0CAFDCEAA257500
:1035F0000A00000008A0FCF749FE0CA0FCF746FEFC
:1036000000F074F90DA0FCF741FE4FF47A742046E7
:1036100001F060FDFBE70000BFAACABCD4CBD0D04C
:10362000C0B6D1C0C8CECEF10A000000BFAACABC45
:10363000B3F5CABCBBAFC0B6D1C00A00C0B6D1C0DA
:10364000BFAACABCBDD3CAD5CAFDBEDD0A000000F0
:1036500010210148FEF788B90008014070B51F4CE1
:103660000125207878B9FFF7F3FF48B90A2001F067
:1036700031FDFFF7EDFF18B92570FEF77FF96060A7
:103680002078002814D0FFF7E3FF4FF47A76012862
:103690000FD0FEF773F96168401AB04208D960781C
:1036A000002805D10EA0FCF7F1FD00F037FA657097
:1036B00070BDFEF763F961680025401AB04206D973
:1036C0000AA0FCF7E3FD00F01BFA657004E00CA013
:1036D000FCF7DCFD00F002FA257070BD040000204C
:1036E0006C6F6E6720636C69636B0A006C6F6E674A
:1036F00020636C69636B20667265650A00000000D8
:1037000073686F727420636C69636B0A0000000059
:1037100006A0FCF7BBFD07E0FFF7A0FF142001F0B7
:10372000D9FC641CFA2CF7D10024F5E7BFAAC6F433
:10373000D4CBD0D0B0B4BCFCC8CECEF10A000000CF
:1037400010B5114902F0E8FF02F052FF00F012FA42
:1037500000220E4B02F0ACFB4FF060420C4B02F02B
:10376000EBFA02460B4600200A4902F0A1FB4FF09B
:10377000C042094B02F052FE0022084B02F0DCFA74
:10378000BDE8104002F0A6BA0060EA4600DCAE4098
:10379000E1796B3F0000F03F661271400000E03FAE
:1037A00070B5144DA5F10804207815F820104FF4D9
:1037B000007000F04FFC207805EB800041784FF45A
:1037C000807000F047FC207805EB80008178802035
:1037D00000F040FC207805EB8000C178402000F02C
:1037E00039FC2078401CC0B22070082801D300208A
:1037F000207070BD1C00002013B54FF6FF7301222E
:1038000069460248FFF7C8F900981CBDAC45002086
:10381000004870470C00002070B594B000246D463D
:103820000AAE1648FDF7B4FE64211448FDF712FEF7
:1038300020B91248FDF750FD45F824000F48FDF768
:10384000A7FE64210D48FDF705FE20B90B48FDF7E2
:1038500043FD46F824000948FDF7FAFE641C0A2CD3
:10386000DFDB0A216846FFF780FD054C0A21206056
:103870000AA8FFF77AFD606014B070BD24450020EF
:103880006400002070B51248406803F027F8114921
:1038900003F038F86FF00B0103F0D5F9054602F09C
:1038A000A7FE4FF066320C4B02F0ACFD06460C460C
:1038B0000A49284603F026F802F09AFE32462346CB
:1038C00002F0F6FA02F006FABDE87040FFF738BFE2
:1038D000640000203333534066660A4000401C46B3
:1038E000EFF30580002800D00120704770B5364EF8
:1038F000364C00252078052859D2DFE800F003185F
:103900002D4260006078401C607031A0FCF7BEFC66
:10391000A068FCF79FFD82B233463348A168FFF7E9
:103920003BF960780A2842D1657030A03DE06078AC
:10393000401C607032A0FCF7A9FCE068FCF78AFD2F
:1039400082B233462848E168FFF726F960780A28F2
:103950002DD1657031A028E06078401C607034A0E3
:10396000FCF794FC2069FCF775FD82B233461E48D3
:103970002169FFF711F960780A2818D1657032A023
:1039800013E06078401C607033A0FCF77FFC606936
:10399000FCF760FD82B2334613486169FFF7FCF81B
:1039A00060780A2803D1657031A0FCF76FFC20789D
:1039B000052808D04FF47A7001F08CFB9AE70520B7
:1039C00020702FA0F1E770BDA08601003C00002010
:1039D000B7A2CBCDBDF8C8EB4154C4A3CABDB5C492
:1039E0004154D6B8C1EE0A00F4450020D6D8B8B488
:1039F000BDF8C8EB4154C4A3CABDCAA7B0DC0A00D5
:103A0000B7A2CBCDB9D8B1D5D7B4CCACCFD4CABE80
:103A1000B5C44154D6B8C1EE0A000000B9D8B1D53A
:103A2000D7B4CCACCFD4CABECAA7B0DC0A00000061
:103A3000B7A2CBCDC9E8D6C3C9E8B1B8C3FBB5C4FA
:103A40004154D6B8C1EE0A00C9E8D6C3C9E8B1B836
:103A5000C3FBCAA7B0DC0A00B7A2CBCDCDCBB3F66F
:103A60004154C4A3CABDB5C44154D6B8C1EE0A007E
:103A7000CDCBB3F64154C4A3CABDCAA7B0DC0A007B
:103A8000C0B6D1C0B3F5CABCBBAFB3C9B9A60A00B2
:103A900010B500223021C82001F052FC0449086012
:103AA00008B104A000E008A0BDE81040FCF7EEBBA0
:103AB0006C000020B4F2D3A1B6D3C1D0B4B4BDA879
:103AC000B3C9B9A60A000000B4F2D3A1B6D3C1D0DD
:103AD000B4B4BDA8CAA7B0DC0A00000010B503A0AA
:103AE000FCF7D4FB05490120887010BD4275747441
:103AF0006F6E20B5A5BBF7210A000000040000206E
:103B000010B503A0FCF7C2FBBDE8104000F084BA7A
:103B1000CDA3D6B9D7DFD6BD0A00000010B50AA0E4
:103B2000FCF7B4FBFFF774FE817800290BD1C07855
:103B3000032801D0002806D107A0FCF7A7FBBDE8A9
:103B4000104000F051BA10BD427574746F6E20B30E
:103B5000A4B0B4210A000000BFAACABCD7DFD6BDFA
:103B60000A000000C2B202210148FDF702BF0000B6
:103B7000000C01402DE9F04DC84A002490B091425C
:103B800005DA21F00043934201D805D120B110B0ED
:103B9000BDE8F04DFFF7E0BBB1F5801F1BDA53EA3B
:103BA000000209D0002911DA0120FCF73AFD10B01B
:103BB000BDE8F04DFFF7D3BB0220FCF732FDFFF765
:103BC000C3FB10B081F00041BDE8F08D6FF035040B
:103BD000362203F00AF804EB2152C1F31308B0496E
:103BE000A2F2FF33414401F4801282F07F6103EBC3
:103BF000225281F04051009241EA08010022A94B73
:103C000002F00CFC044608F10200A74EC0F31300BA
:103C10000D467E44032867D2D6E90023204602F0F1
:103C20009FFA1ED10098002802BFD6E9000110B00B
:103C3000BDE8F08D02F0D0FA07460C469B4A9C4B3B
:103C400002F0E2FA06460D469A4A9B4B3846214658
:103C500002F0DAFA10B032462B46BDE8F04D02F021
:103C60006BB84FF05532954B2046294602F0CCFAFE
:103C70000022934B02F0C6FB06460F4622462B4617
:103C80001046194602F0C0FA32463B4602F0BCFA32
:103C9000064600980F46F0B102F09EFA80468A462A
:103CA000824A834B02F0B0FA32463B4602F0AAFB4E
:103CB00022462B4602F0B2FB05460C467D4A7E4B5F
:103CC0004046514602F0A0FA10B02A462346BDE80D
:103CD000F04D02F0A3BB0B4610B0324620462946F9
:103CE000BDE8F04D02F09ABB00224FF08043204621
:103CF00002F022F802460B462046294602F0D8F888
:103D000006460F46009802F067FACDE904013246F4
:103D10003B461046394602F077FA0C9069480C9AF7
:103D20004044019009910B46104602F06DFA82461C
:103D3000024665488B46C8F151080B4608F5D7285E
:103D400003217844FFF7ABFA52465B4602F05CFA77
:103D50000A905E480D9152465B4604217844FFF775
:103D60009EFA099B0C9A02F04FFA844601980D9B2B
:103D700040EA080860460A9A01F0DEFF834608918F
:103D8000B8F1000F4EDD4FF0FF322046294602F019
:103D90002CFF22462B4602F037FA804600988A46CE
:103DA00060B3DDE90401414A414B02F02DFA09916B
:103DB00000905A4640465146089B01F0BDFF3246EE
:103DC0003B4602F021FA099B009A01F0B5FF4246FA
:103DD000534602F017FB22462B4602F01FFB044617
:103DE0000D46DDE90401334A334B02F00DFA10B001
:103DF00022462B46BDE8F04D02F010BB5A46404625
:103E0000089B01F099FF32463B4602F0FDF942461D
:103E1000534602F0F7FA10B022462B46BDE8F04DAB
:103E200002F0F0BA009840B3DDE904011F4A204BCC
:103E300002F0EAF980468A465A4620462946089BFF
:103E400002F0ECFA32463B4602F0DEF942465346B7
:103E500002F0E4FA22462B4602F0E0FA04460D4650
:103E6000DDE90401134A144B02F0CEF910B02246EA
:103E70002B46BDE8F04D02F0D1BA0B465A4620461B
:103E8000294602F0CBFA32463B4602F0BDF910B0AB
:103E900022462B46BDE8F04D02F0B4BA0000F07F98
:103EA000645F09000000F03F72310000763C793514
:103EB000EF39EA3D0000E0FE422EE63F5555D53F82
:103EC0000000E03F86EBF9FF0A30000008300000F8
:103ED00088B0FDF761FDFEF769FFFDF707F9FDF713
:103EE0005FF8FEF7ADFEFFF78BF9FFF7ABF9FEF7D2
:103EF0009BFFFFF7CDFD012209490A48FEF728FE86
:103F00001C2209496846FCF709FB0021684600F0BD
:103F1000B5F80649086000F055FF00F0AAF8FEE782
:103F2000FC000020F4450020C46C000800000020C4
:103F300001460020842900D0C81C70472DE9F041BB
:103F40000546274C0027DFF89C8044E0244E20786B
:103F5000083616F820104FF4007000F07BF8207837
:103F600006EB800041784FF4807000F073F8207801
:103F700006EB80008178802000F06CF8207806EB5A
:103F80008000C178402000F065F82078401CC0B265
:103F90002070082800D32770D8F800104F62D8F896
:103FA00000100A6842F001020A60D8F800004FF4DD
:103FB0007A61426A8A42FCD3016A41F211121142CB
:103FC00007D1016A9210114203D1016821F0010169
:103FD00001606D1EEDB2002DB8D1BDE8F08100008A
:103FE000140000203C4600201CB5094C606850B904
:103FF00008490022D1E90001CDE90001012168460C
:1040000000F066F86060BDE81C40022100F080B856
:1040100014000020E06C000810B500214FF400707F
:1040200000F018F800214FF4807000F013F8002120
:10403000802000F00FF80021402000F00BF8044829
:104040004068002803D0BDE8104000F08FB810BDD4
:1040500014000020CAB281B20148FDF78ABC0000FA
:10406000000C014010B500B9012001F033F8002028
:1040700010BD10B501F096F8002010BD7FB50D46BB
:1040800004464169B0F9080081B1A16971B1FFF737
:104090004FFFD4E905128DE80700D4E900102B4644
:1040A000226901F0F8FB039004B070BDFFF740FFF8
:1040B00003A9CDE90001208A2B4682B2D4E9001081
:1040C00001F0BCFB012801D00020EDE70398EBE7ED
:1040D0001CB511C86CB1CDE90004012907D000203E
:1040E00013460246012109A001F07CFD1CBD012000
:1040F000F6E70090012907D000201346024601216F
:1041000002A001F055FD1CBD0120F6E700000000F3
:104110002DE9FC41002507462E4601950C0000D1F3
:104120000124FFF7DDFB009690B101AB2246092187
:10413000384601F09FFD012812D1019888B10A4943
:104140004FF080500860BFF34F8FBFF36F8F08E0D0
:10415000002322460421384601F08CFD012800D0BE
:10416000FF252846BDE8FC8104ED00E07CB5002574
:1041700006462C460195FFF7B3FB0094A0B101ABB6
:1041800000220821304601F075FD012801D0FF20F2
:104190007CBD019888B10A494FF080500860BFF398
:1041A0004F8FBFF36F8F08E000231A46032130467C
:1041B00001F060FD012800D0FF2528467CBD0000ED
:1041C00004ED00E010B500F07FFD0120FFF7B6FE22
:1041D00000F006F8BDE810400320FFF7AFBE000076
:1041E0002DE9F0470025214C41F288392E4641F255
:1041F000111740F24448E8B2012100F02BFE20687C
:1042000046622068016841F001010160206849466A
:10421000426A8A42FCD3016A394207D1016A11EA33
:10422000080F03D1016821F001010160E8B200210B
:1042300000F010FE206846622068016841F001012C
:1042400001602068416AC829FCD3016A394207D15C
:10425000016A11EA080F03D1016821F00101016030
:104260006D1C062DC7DBBDE8F08700003C46002032
:104270001CA0FCF70BF8204D002441F28836324692
:104280001E49286801F004FA28B104B901241B482A
:10429000FFF798FFF3E704B30021084600F0DAFDCA
:1042A0000021012000F0D6FD0021022000F0D2FD07
:1042B0000021032000F0CEFD0021042000F0CAFD03
:1042C0000021052000F0C6FD0120FFF74BFC002275
:1042D0004FF400610A48FDF74CFB0024642000F015
:1042E000F9FECCE7BFAACABCD4CBD0D0B4F2D3A1DC
:1042F000C8CECEF10A0000006C0000204408002067
:10430000000801402DE9F041184C0F460546E668CB
:104310002068001D00F0AAFD38B9206890F82C1024
:1043200001208840216981432161681C07D137B190
:104330002168BDE8F0410E48091D00F0E7BD206886
:104340003544B5424560216805D2A06BBDE8F04117
:10435000091D00F0C3BD606B091D00F0BFFDA06A20
:10436000854200D2A562BDE8F081000080000020F7
:10437000900900202DE9F041054600F0D3FD2E4CB8
:10438000A068401CA06020682C4F10B1606940B349
:104390002DE02560A068012829D1002606EB8600C3
:1043A00007EB800000F08CFD761C072EF6D3234827
:1043B0008C3000F085FD2148A03000F081FD1F48C1
:1043C000B43000F07DFD1D48C83000F079FD1B4879
:1043D000DC3000F075FD19488C3060631430A06348
:1043E00005E02068E96AC06A884200D82560606AF2
:1043F000401C6062E96A0120226988401043206104
:1044000001EB810007EB8000291D00F07FFD00F02B
:10441000A9FD606900280CD02068E96AC06A88425A
:1044200007D207494FF080500860BFF34F8FBFF3AA
:104430006F8FBDE8F081000080000020B4080020EC
:1044400004ED00E038B500F06DFD104C2068C8B9EF
:104450000F4800F035FD0E48143000F031FD0C48D7
:10446000E060143020610A4B0020C03B009003F153
:1044700048020C210A2000F084FF206010B105A141
:1044800000F0F2FDBDE8384000F06CBDBC0000203B
:10449000640A0020546D72510000000030B4026CB8
:1044A0000B46002A0BD0C1681144C1608468A14248
:1044B00001D30168C16030BC1846FBF7EABF30BCCD
:1044C00070472DE9F041856B174604460026026CC3
:1044D00082B1C7B1E068FBF7DCFFE168206C091A24
:1044E000E1602268914202D2A168081AE060022FBE
:1044F00016D017E02068A8B9A06801F071FA064646
:104500000020A0600EE06068FBF7C3FF216C6068CC
:1045100008446060A168884204D32068606001E0BC
:1045200005B16D1E6D1CA5633046BDE8F08110B568
:10453000044690F8510058B101280CD002280FD041
:10454000502080F31188BFF34F8FBFF36F8FFEE7CA
:10455000206B00F01BFD2046BDE8104000F016BDAA
:1045600010BD00000F4843F69821420705D0C01D3A
:104570000C4A20F00700821A891A0B4A00230144D2
:10458000C2E900030839183A21F0070111604B60B5
:104590000B600B1AC0E9001393604FF000405360AA
:1045A000506170478C0A0020E8000020144E154C22
:1045B000A6F1C8074FF08058DFF84C9012E000BF1A
:1045C00000F0B0FCF068C568281D00F04FFCA06842
:1045D000401EA0606068401E606000F0C3FC28467A
:1045E000FFF7A5FF60680028EAD138680128F9D9EB
:1045F000C9F80080BFF34F8FBFF36F8FF2E7000061
:104600007C0900208000002004ED00E003460098B3
:1046100029B10260C0E90F31012100F0E5BE006060
:10462000F8E72DE9F0479A46DDE9098481466FF005
:104630000303206B03EB82021044089E20F007075F
:10464000780707D0502080F31188BFF34F8FBFF356
:104650006F8FFEE7002561B1002023180A5C83F804
:1046600034200A5C12B1401C1028F6D384F8435061
:1046700001E084F83450072E00D30626E662C4E930
:104680001165201D00F027FC04F1180000F023FC48
:104690002461C6F107006462A061E56484F85050AB
:1046A00052464946384600F07BFA2060B8F1000FC8
:1046B00001D0C8F80040BDE8F0872DE9F0471E465C
:1046C000DDE9089417460D00804615D0002C11D066
:1046D000FFF7B8FE04F11801C4F8008081E8600219
:1046E000201D00F0F8FB002F04D014F8240F40F038
:1046F00004002070BDE8F087502080F31188BFF3DC
:104700004F8FBFF36F8FFEE730B5114900E01146C0
:104710000A688242FBD34B685C18844203D140682C
:1047200018444860084643681C18944209D1084C54
:10473000183C2468A24209D052681A4442600A68B0
:1047400012680260814200D0086030BD0460F9E761
:10475000E800002070B5002441600B4D00619142DB
:1047600006D8D11A8269914206D2011D286907E054
:104770009A4203D2994201D3012403E0011DE86863
:1047800000F0ACFB204670BDBC00002010B5044614
:1047900000F0C8FBA06B28B15FF0000400F0E2FB62
:1047A000204610BD0124F9E730B587B0394D67E0E8
:1047B0000498002864DB069C606910B1201D00F09D
:1047C00055FB03A800F0D8F8024604980A2857D2EF
:1047D000DFE800F00505052D334A05052D3394F873
:1047E000240040F0010084F824000599A069059B8D
:1047F00001442046FFF7AEFF68B3216A2046884790
:1048000094F8240040073BD5002000900598A1694A
:10481000002342181946204601F02CFAD8B950203E
:1048200080F31188BFF34F8FBFF36F8FFEE714F84B
:10483000240F20F00100207022E094F8240040F0C2
:10484000010084F824000598A06128B1811813465E
:104850002046FFF77FFF13E0502080F31188BFF35D
:104860004F8FBFF36F8FFEE794F82400810703D4C6
:10487000204600F08BFB03E020F0010084F82400C8
:10488000002204A9286800F003FF002890D107B097
:1048900030BD0000BC0000202DE9FC410F4605465C
:1048A00000F0C4FC01A800F067F80446019818B1B4
:1048B00001F01CF9BDE8FC81254EAFB130690068FC
:1048C000D0B30027291B3A46306800F0E1FB01F025
:1048D0000DF90028EED11F494FF080500860BFF35A
:1048E0004F8FBFF36F8FE5E7A542EBD801F0FEF8DD
:1048F000F0682746C068C468201D00F0B7FA94F835
:104900002400410719D5A0692B4641193A46204693
:10491000FFF720FFA8B100200346014600902A4679
:10492000204601F0A7F960B9502080F31188BFF349
:104930004F8FBFF36F8FFEE707E020F0010084F890
:104940002400216A20468847B4E70127BAE700001F
:10495000BC00002004ED00E00648416B096829B165
:10496000416BC968C9684968816270474FF0FF317F
:10497000FAE700008000002070B5054600F0C4FF93
:10498000064E0446B068844203D200F009F80120C4
:1049900000E0002028602046B46070BDBC0000200C
:1049A000F8B5194D20E0C068C4680668201D00F005
:1049B0005DFA216A2046884794F82400400713D501
:1049C000A0693044B04206D924616060211DE868C6
:1049D00000F084FA08E000200346014600903246C9
:1049E000204601F047F938B1E86801680029DAD1BA
:1049F0002969C5E90310F8BD502080F31188BFF381
:104A00004F8FBFF36F8FFEE7BC000020084840685F
:104A1000401C4FF0500080F3118804D0BFF34F8F3B
:104A2000BFF36F8FFEE7BFF34F8FBFF36F8FFEE7CC
:104A3000F0000020074CE068016841B1C068002127
:104A4000D0F80000FFF728FFFFF7AEFEF3E70121E3
:104A50000020F7E7BC0000202DE9F041044600F0FB
:104A600061FA94F9455004F1240609E0606A48B1FE
:104A7000304601F001F808B100F05AFB6D1E6DB22E
:104A8000002DF3DC4FF0FF3684F8456000F06AFA41
:104A900000F048FA94F9445004F1100709E0206945
:104AA00048B1384600F0E8FF08B100F041FB6D1E48
:104AB0006DB2002DF3DC84F84460BDE8F04100F0F5
:104AC00051BA00002DE9F0410546002700F0AEFB89
:104AD000324E306808B9FFF745FD706905424ED186
:104AE000C5B3083568070ED005F00700C0F108000F
:104AF0000544680707D0502080F31188BFF34F8F1B
:104B0000BFF36F8FFEE72DB37068854237D8234817
:104B1000183001460C6801E020460C466168A94245
:104B200002D221680029F7D131688C4227D007686A
:104B30002168016060680837411B10290FD960198E
:104B4000420708D0502080F31188BFF34F8FBFF386
:104B50006F8FFEE713E041606560FFF7D5FD616888
:104B60007068401A7060B268904200D2B06070699C
:104B700001430020C4E90001F068401CF06000F02F
:104B8000B5FF780707D0502080F31188BFF34F8F0F
:104B9000BFF36F8FFEE73846BDE8F081D0000020FC
:104BA00010B5031F4FF080741C601B1F21F0010122
:104BB0001960191F024B0B60143940380A6010BD90
:104BC0000D4A00080F4810B5006801F087FE0E4935
:104BD00001F098FE6FF00B0102F035F801F05EFE77
:104BE00040006422A0F6E44050434FF4617100F5A8
:104BF000E17090FBF1F0C1B204486429017000D962
:104C0000027010BD64000020333353400C000020BC
:104C100010B5FEF701FEFFF7D5FFFEF733FE0A4998
:104C20000A4C884202DB01F039FE00E0002060708F
:104C30004FF480710648FCF797FE00B10120BDE8F3
:104C4000104000F093B8000095BFD6330C00002050
:104C50000008014008B515A0FBF718FB1848002113
:104C600064220160C17002701E2242708170017165
:104C70004FF6FF7441F28835FFF7CAFF104923460B
:104C8000042208788DF8000048788DF801008878B3
:104C90008DF80200C8788DF8030069460948FDF7D1
:104CA0007BFF284600F016FAE6E70000BFAACABC60
:104CB000D4CBD0D0B1A8B8E6C8CECEF10A0000005F
:104CC0000C000020F44500202DE9F04107460024A7
:104CD0000026354605EBC400385C01F0FFFD314687
:104CE00001F0B2FC6D1C0646082DF3DB014601F015
:104CF00009FE01F07DFC194A194B01F085FA00F01C
:104D0000E9FF184941F82400641C062CE0DB30213F
:104D1000384600F04DF80020FEF724FF124800212D
:104D20000268516201680A6842F001020A60006884
:104D3000416A0029FCD0016A41F21112114207D1E7
:104D4000016A9210114203D1016821F00101016052
:104D5000BDE8F0410120FEF705BF0000FCA9F1D23B
:104D60004D62503F2C0800203C46002001498870CD
:104D7000704700000C00002010B50446014603A057
:104D8000FBF784FA0648047010BD0000B4F2D3A10A
:104D9000C3DCB6C8C9E8D6C32025640A00000000F9
:104DA0005400002001490871704700000C000020E9
:104DB0000A4601464FF47A730148FDF78BBA0000AA
:104DC000544500207CB5002400942346802211A184
:104DD0001348019400F032FD0320CDE900040023C4
:104DE000802210A1124800F029FD0520CDE9000421
:104DF0004FF4807500232A460EA1114800F01EFDD5
:104E00000620CDE9000400232A460EA1104800F038
:104E100015FD7CBD627574746F6E5F7461736B0099
:104E2000113700087265706F72745F7461736B0084
:104E3000554C0008626C655F7461736B0000000084
:104E4000F53500087072696E745F7461736B0000F1
:104E500071420008CAB2034931F810100248FCF749
:104E600088BD000056000020000C0140D0E901324E
:104E700001699A60D0E901235A604A68824201D1EF
:104E800082684A60002202610868401E0860086863
:104E900070470000034B036003F15400086080205A
:104EA000106070470C010020044B036003F15400B4
:104EB00008604FF4807010607047000060030020AD
:104EC00000F108014FF0FF32C0E90112C160016139
:104ED00000210160704700210161704730B50B6807
:104EE0005A1C02D000F1080202E0026904E02246E6
:104EF000546825689D42FAD953684B6099608A606E
:104F0000516008610168491C016030BD42684A6017
:104F100093688B6093685960916008610168491CCF
:104F200001607047502080F31188BFF34F8FBFF3AB
:104F30006F8F0A494868401C486001280CD1084816
:104F4000006810F0FF0F07D0502080F31188BFF3E6
:104F50004F8FBFF36F8FFEE770470000F000002017
:104F600004ED00E00849486828B1401E486001D1BE
:104F700080F311887047502080F31188BFF34F8F62
:104F8000BFF36F8FFEE70000F000002070B500282F
:104F90002AD0164DA0F1080460686969084207D15B
:104FA000502080F31188BFF34F8FBFF36F8FFEE760
:104FB00022683AB1502080F31188BFF34F8FBFF3BE
:104FC0006F8FFEE78843606000F030F960686968C1
:104FD000084468602046FFF797FB2869401C286159
:104FE000BDE8704000F082BD70BD0000D000002020
:104FF0004FF0E02000210161816105494FF47A7290
:105000000968B1FBF2F1491E416107210161704756
:105010007C00002010B5FBF715F9114910280ED3BC
:1050200000F1E02090F8F0030A78904207D2502077
:1050300080F31188BFF34F8FBFF36F8FFEE70948EE
:105040000068896800F4E060884207D9502080F346
:105050001188BFF34F8FBFF36F8FFEE710BD0000C5
:10506000F00000200CED00E010B5084B002200BF5E
:1050700053F832401CB1521C082AF9D310BD43F832
:10508000321003EBC201486010BD0000740800201C
:1050900070B515460E460446FFF744FF94F94410D8
:1050A0000020491C01D184F8440094F94510491CA2
:1050B00001D184F84500FFF755FFA06B28B92A46B7
:1050C000314604F1240000F051F82046BDE870405C
:1050D000FFF7C2BC10B5020014D00F48006B38B106
:1050E000502080F31188BFF34F8FBFF36F8FFEE71F
:1050F00000F09CF800211046FFF704F900F0F6FCE0
:10510000002807D105494FF080500860BFF34F8F4A
:10511000BFF36F8F10BD00008000002004ED00E0A1
:1051200002490A6A0260C968416070478000002035
:1051300001490120C86170478000002010B50C466D
:1051400050B1094909681831FFF7C8FE2046BDE88B
:1051500010400121FFF7D6B8502080F31188BFF32B
:105160004F8FBFF36F8FFEE78000002070B51446AD
:105170000D4668B10A4909681831FFF7C7FE0CB13E
:105180004FF0FF3521462846BDE87040FFF7BAB81A
:10519000502080F31188BFF34F8FBFF36F8FFEE76E
:1051A0008000002030B587B00024039405AA04A92C
:1051B00003A80494FFF76EFEDDE903010094CDE936
:1051C0000110002315A11748059A00F064FB164D45
:1051D0000028E8621FD000F01DFD012809D0401C06
:1051E00019D1502080F31188BFF34F8FBFF36F8F19
:1051F000FEE7502080F31188BFF34F8FBFF36F8F0E
:105200004FF0FF30A86201206861EC6007B0BDE894
:10521000304000F041B807B030BD000049444C4573
:1052200000000000AD450008800000200248016B2E
:10523000491C016370470000800000201448016B86
:1052400011B10121C16170470021C1610169B1FA49
:1052500081F1C1F11F0101EB81020E4951F82230A9
:105260006BB101EB820101F108034A6852684A60A0
:105270009A4201D152684A60D1680160704750205B
:1052800080F31188BFF34F8FBFF36F8FFEE70000ED
:1052900080000020B40800201CB526490878019041
:1052A000FF20087008788DF800009DF800009DF838
:1052B000002000F0F000904207D0502080F31188C9
:1052C000BFF34F8FBFF36F8FFEE79DF800001A4CBE
:1052D00000F0500020700720A06005E09DF800203D
:1052E00052008DF80020401E9DF800201206F5D4D3
:1052F000A060032807D0502080F31188BFF34F8FA0
:10530000BFF36F8FFEE74FF44070A0600198087004
:105310000A48016841F470010160016841F0704180
:105320000160FFF765FE00206060FAF755FF00207E
:105330001CBD000000E400E0F000002020ED00E0D3
:10534000F8B517460E46050013D005FB06F04830A9
:10535000FFF7B8FB04000AD0002084F8460004F1EF
:1053600048023B46314628460094FFF74FF9204655
:10537000F8BD502080F31188BFF34F8FBFF36F8FBC
:10538000FEE738B5049D18B153B1CAB181B120E030
:10539000502080F31188BFF34F8FBFF36F8FFEE76C
:1053A000502080F31188BFF34F8FBFF36F8FFEE75C
:1053B000502080F31188BFF34F8FBFF36F8FFEE74C
:1053C00039B1502080F31188BFF34F8FBFF36F8F37
:1053D000FEE748241C46012384F846302B460094FF
:1053E000FFF714F9204638BD70B50D46040025D0EE
:1053F000FFF798FDD4E90F20216802FB0011A1609E
:105400000021A163216861600A46D4E90F01401EB2
:1054100000FB0121E16021464FF0FF3001F8440F0D
:10542000487004F110008DB1FFF74AFD04F124002B
:10543000FFF746FDFFF796FD012070BD502080F379
:105440001188BFF34F8FBFF36F8FFEE721690029EB
:10545000F0D000F011FB0028ECD004494FF0805050
:105460000860BFF34F8FBFF36F8FE3E704ED00E0F9
:105470002DE9FF4782B01D468A464FF00008040020
:1054800003D0BAF1000F08D011E0502080F311884A
:10549000BFF34F8FBFF36F8FFEE7206C38B1502002
:1054A00080F31188BFF34F8FBFF36F8FFEE7022D9C
:1054B0000AD1E06B012807D0502080F31188BFF398
:1054C0004F8FBFF36F8FFEE700F010FA3F4F4FF0A2
:1054D00000094FF0805648B9049838B1502080F345
:1054E0001188BFF34F8FBFF36F8FFEE7FFF71AFDF1
:1054F000A06BE16B884207D3022D05D00498D0B190
:10550000B8F1000F1AD01EE02A4651462046FEF799
:10551000D8FF616A19B104F1240000F0ADFA20B19E
:105520003E60BFF34F8FBFF36F8FFFF71BFD01206E
:1055300006B0BDE8F087FFF715FD22E06846FFF7EB
:10554000EFFD4FF00108FFF70DFDFFF76FFEFFF7CE
:10555000E9FC94F94400401C01D184F8449094F98A
:105560004500401C01D184F84590FFF7FBFC04A9DD
:10557000684600F029F930B12046FFF76DFA00F0D7
:10558000B5FA0020D4E7FFF7CDFCA06BE16B8842B1
:1055900013D1FFF7E7FC04F110000499FFF7CEFDEB
:1055A0002046FFF759FA00F0A1FA00289ED13E608C
:1055B000BFF34F8FBFF36F8F98E7FFF7D3FC204601
:1055C000FFF74AFA00F092FA90E7000004ED00E0DD
:1055D0002DE9F0471F4690468946040003D0B9F1F3
:1055E000000F08D011E0502080F31188BFF34F8FD7
:1055F000BFF36F8FFEE7206C38B1502080F3118825
:10560000BFF34F8FBFF36F8FFEE7022F0AD1E06B1E
:10561000012807D0502080F31188BFF34F8FBFF3CC
:105620006F8FFEE7FFF7F6FC5020EFF3118680F353
:105630001188BFF34F8FBFF36F8FA06BE16B884270
:1056400006D3022F04D0002086F31188BDE8F0872E
:1056500094F94550A06B3A4649462046FEF731FF83
:10566000681C04D06D1C84F845500120ECE7606A8A
:105670000028FAD004F1240000F0FEF90028F4D04C
:10568000B8F1000FF1D00121C8F80010EDE70000DB
:105690002DE9F747002683B08A46040003D0BAF10B
:1056A000000F08D011E0502080F31188BFF34F8F16
:1056B000BFF36F8FFEE7206C38B1502080F3118864
:1056C000BFF34F8FBFF36F8FFEE700F00FF9DFF8E6
:1056D000F4804FF000094FF0805748B9059838B171
:1056E000502080F31188BFF34F8FBFF36F8FFEE719
:1056F000FFF718FCA56BC5B151462046FEF7CEFE5C
:105700006D1EA563206950B104F1100000F0B4F9DA
:1057100028B1C8F80070BFF34F8FBFF36F8FFFF74A
:1057200021FC012006B0BDE8F087059808B11EB144
:1057300006E0FFF717FC27E06846FFF7F1FC0126BB
:10574000FFF710FCFFF772FDFFF7ECFB94F9440044
:10575000401C01D184F8449094F94500401C01D1CB
:1057600084F84590FFF7FEFB05A9684600F02CF889
:10577000002820460AD0FFF76FF900F0B7F920465D
:10578000FFF704F80028B3D00020CBE7FEF7FEFFB8
:1057900090B104F124000599FFF7D0FC2046FFF7F3
:1057A0005BF900F0A3F90028A2D1C8F80070BFF39C
:1057B0004F8FBFF36F8F9BE72046FFF74DF900F047
:1057C00095F995E704ED00E02DE9F0410C46050060
:1057D00011D0C4B1FFF7A6FB174BDA686E682068DA
:1057E000911B471C17D02F681B6A9F4219D0964205
:1057F00017D8012410E0502080F31188BFF34F8F99
:10580000BFF36F8FFEE7502080F31188BFF34F8FF7
:10581000BFF36F8FFEE70024FFF7A4FB2046BDE82F
:10582000F081884205D9401A20602846FFF778FCAD
:10583000F1E700202060DCE7800000202DE9FF5F19
:105840008346DDE90E87994616468A469000FFF7A3
:1058500039F905001CD05420FFF734F9040014D0A6
:105860000020256384F85100CDE90240CDE900878E
:105870004B46324651465846FEF7D3FE2046FEF7C9
:1058800079FD012004B0BDE8F09F2846FFF77EFBBC
:105890004FF0FF30F6E7F0B585B0DDE90B640A9D07
:1058A000A6B1DCB1542700972663022684F8516024
:1058B000002604AFCDE90246CDE90057FEF7B1FE60
:1058C0002046FEF757FD049805B0F0BD502080F348
:1058D0001188BFF34F8FBFF36F8FFEE7502080F327
:1058E0001188BFF34F8FBFF36F8FFEE70548416903
:1058F00019B1006B18B100207047012070470220D9
:1059000070470000800000200148C0687047000018
:10591000800000202DE9F0412F4C0026206B28B19B
:10592000A069401CA0613046BDE8F081E5686D1CAF
:10593000E56013D1606B006838B1502080F31188A6
:10594000BFF34F8FBFF36F8FFEE7606BA16B616397
:10595000A063206A401C2062FEF7FEFFA06ADFF809
:105960007C80854209D3606B0068A0B1606BC06821
:10597000C7687868854211D2A0622068C06A00EBCF
:10598000800158F82100012800D90126E06900288B
:10599000C9D00126C7E74FF0FF30EDE7381DFFF70C
:1059A00065FAB86A18B107F11800FFF75FFAF96AEB
:1059B0000120226988401043206101EB810108EB3E
:1059C0008100391DFFF7A2FAF86A2168C96A884286
:1059D000C9D30126C7E7000080000020B4080020DA
:1059E00070B504004FF0000140D0214D286884427A
:1059F00007D0502080F31188BFF34F8FBFF36F8F14
:105A0000FEE7A06C38B1401EA064636CE26A9A4263
:105A10002CD040B12AE0502080F31188BFF34F8F83
:105A2000BFF36F8FFEE7201DFFF720FA114A012117
:105A300050B9E06A00EB800352F8233023B92B6998
:105A400001FA00F083432B61606CE062C0F1070053
:105A5000A061E06A2B6981401943296100EB800055
:105A600002EB8000211DFFF751FA0121084670BDAD
:105A700080000020B40800202DE9F041C068C4680F
:105A8000ACB104F118000746FFF7F0F9154D286B8B
:105A90000126A0B139461448FFF738FAE06A2968B0
:105AA000C96A88421CD90120EE61BDE8F08150200E
:105AB00080F31188BFF34F8FBFF36F8FFEE7201D78
:105AC000FFF7D4F9E16A2A6906FA01F01043286168
:105AD00001EB81000449B43901EB8000211DDBE7B3
