:020000040800F2
:10000000001F00204D020008BF2A0008BB2A00087C
:10001000BD2A0008C51000081130000800000000CB
:10002000000000000000000000000000B501000812
:10003000C710000800000000F9010008152B000897
:1000400067020008670200086702000867020008EC
:1000500067020008670200086702000867020008DC
:1000600067020008670200086702000867020008CC
:1000700067020008670200086702000867020008BC
:1000800067020008670200086702000867020008AC
:10009000670200086702000867020008C91000082C
:1000A000670200086702000867020008670200088C
:1000B0006702000867020008252C00086702000894
:1000C000670200086702000867020008670200086C
:1000D0006702000867020008CD2F000867020008C9
:1000E00067020008670200086702000800F002F8D3
:1000F00000F050F80AA090E8000C82448344AAF172
:100100000107DA4501D100F045F8AFF2090EBAE86F
:100110000F0013F0010F18BFFB1A43F0010318473B
:100120008C540000AC540000103A24BF78C878C149
:10013000FAD8520724BF30C830C144BF04680C60ED
:10014000704700000023002400250026103A28BF35
:1001500078C1FBD8520728BF30C148BF0B60704739
:10016000642900F0FD80752900F0FA80782900F0FC
:100170003381732900F0BB82002070471FB59DE8D2
:10018000030000F0F3FC00F0E5FA1FBD10B500F02D
:100190004AFB10BD00F0ADFB1146FFF7EFFF03F087
:1001A000BFFA00F0B1FC03B4FFF7F0FF03BC00F0AE
:1001B0004FFE0000224B19680868B0E8F00F80F38A
:1001C0000988BFF36F8F4FF0000080F311884EF065
:1001D0000D0E70470000000006480068006880F3BC
:1001E000088862B661B6BFF34F8FBFF36F8F00DF31
:1001F00000BF00BF08ED00E0EFF30980BFF36F8F91
:100200000F4B1A6820E9F00F106008B54FF050004E
:1002100080F31188BFF34F8FBFF36F8F04F0B8FAEC
:100220004FF0000080F31188BDE8084019680868A5
:10023000B0E8F00F80F30988BFF36F8F704700BFFD
:1002400080000020EFF305807047000009488047D8
:1002500009480047FEE7FEE7FEE7FEE7FEE7FEE7A8
:10026000FEE7FEE7FEE7FEE704480549054A064BC0
:1002700070470000B92B0008ED00000800190020AD
:10028000001F0020001B0020001B00200FB40449A9
:1002900010B503AA029800F02FFA10BC5DF814FB09
:1002A000F81700202DE9F0410E4604460020206298
:1002B0002046E168884730B3252805D0D4E90121DC
:1002C0009047206A401CF2E7E168204600278847F3
:1002D000050018D0A5F14100192802D820354FF4A7
:1002E00000673246294620462760FFF739FF40B1B4
:1002F000012804D0F61D26F007060836D8E7361D7B
:10030000D6E72846DAE7206ABDE8F08170B50C46EA
:100310000546012A05D02878800600D5EA69002321
:1003200002E0012305E05B1C934202D2E05C00285E
:10033000F9D1A869E618C01AA861286A1844286289
:100340002846AFF3008004E0D5E9012114F8010B41
:100350009047B442F8D32846AFF3008070BD000048
:100360002DE9F0410646002410687529314616A58E
:1003700010D0AFF30080002802DA404213A507E056
:1003800031688A0701D512A502E0490704D511A5F5
:10039000012401E0AFF3008000210A2206F12407C6
:1003A00009E0B0FBF2FCB0FBF2F302FB1C003030C2
:1003B00078541846491C0028F3D123462A46304673
:1003C000BDE8F04100F028B9000000002D00000059
:1003D0002B0000002000000070B504460D462146A9
:1003E0001068AFF300802188090502D50F4A7A44CE
:1003F00002E00E4A7A440E32002104F1240305E0A3
:1004000000F00F060009965D5E54491C0028F7D1E4
:1004100020780023000704D5702D02D009B10223F3
:1004200011322046BDE8704000F0F6B8425100009D
:1004300030B505460B462A4613F8014B12F8010B5E
:1004400008B1A042F8D01CB1002802D06D1CF1E721
:10045000284630BD10B5431C02E010F8011B71B1F5
:100460008107FAD14FF0013202C88C1A8C4314EA8A
:10047000C211F9D0C01A0A0603D0C01E10BDC01A9E
:1004800010BD0A0401D0801E10BD0902FCD0401E20
:1004900010BD032A40F2308010F0030C00F01580EC
:1004A00011F8013BBCF1020F624498BF11F801CB77
:1004B00000F8013B38BF11F8013BA2F1040298BFDC
:1004C00000F801CB38BF00F8013B11F0030300F046
:1004D0002580083AC0F0088051F8043B083A51F8EA
:1004E00004CBA0E80810F5E7121D5CBF51F8043BEF
:1004F00040F8043BAFF30080D20724BF11F8013B62
:1005000011F801CB48BF11F8012B24BF00F8013BC3
:1005100000F801CB48BF00F8012B704710B5203A16
:10052000C0F00B80B1E81850203AA0E81850B1E8AC
:100530001850A0E81850BFF4F5AF5FEA027C24BF62
:10054000B1E81850A0E8185044BF18C918C0BDE859
:1005500010405FEA827C24BF51F8043B40F8043B22
:1005600008BF7047D20728BF31F8023B48BF11F8D7
:10057000012B28BF20F8023B48BF00F8012B704731
:100580004FF000020429C0F0128010F0030C00F0BC
:100590001B80CCF1040CBCF1020F18BF00F8012B3A
:1005A000A8BF20F8022BA1EB0C0100F00DB85FEA08
:1005B000C17C24BF00F8012B00F8012B48BF00F8D4
:1005C000012B70474FF0000200B513469446964643
:1005D000203922BFA0E80C50A0E80C50B1F1200156
:1005E000BFF4F7AF090728BFA0E80C5048BF0CC004
:1005F0005DF804EB890028BF40F8042B08BF704762
:1006000048BF20F8022B11F0804F18BF00F8012BD3
:1006100070477047704770472DE9F0470D4699467F
:100620009246044600F124080168880604D5E06972
:1006300021F01001216000E00120A84201DD471BEC
:1006400000E00027A1697A1902EB0900081AA061ED
:100650002078C00602D42046AFF30080002608E0D0
:10066000D4E901211AF806009047206A401C761C44
:1006700020624E45F4DB2078C0060AD52046AFF351
:10068000008006E0D4E9012130209047206A401C18
:100690002062381EA7F10107F4DC07E0D4E901214C
:1006A00018F805009047206A401C2062281EA5F11A
:1006B0000105F3DC2046AFF300802078000602D568
:1006C0000220BDE8F0870120FBE710B5436913B1B4
:1006D000AFF3008001E0FFF719FE012010BD127892
:1006E00000F124010A7000224A700122EDE711682E
:1006F0004FF0FF32E9E70000074B70B50D467B4431
:1007000000F011F80446284600F020F810B14FF030
:10071000FF3070BD204670BD5F2D000001694A1C8E
:1007200002610878704700B58FB0CDE90131002132
:10073000059105497944CDE9031011466846FFF754
:10074000B1FD0FB000BD0000E5FFFFFF007B00F032
:100750008000704710B542485421FFF733FF4148ED
:100760005421FFF72FFF40485421FFF72BFF3F494B
:100770003B483C4A3F4B08603D490A603A49196092
:10078000531C0365481C1065012008653B48344A2A
:1007900039A1784400F01CF920B9384878440A3867
:1007A00000F0BBF937482F4A35A1784400F010F922
:1007B00020B9344878440A3800F0AFF932482A4A60
:1007C0002FA1784400F004F920B92F4878440A3862
:1007D00000F0A3F940232248DC000021224600F06B
:1007E000D4F820B125487844543800F096F91D48D3
:1007F00022464023002100F0C8F820B12148784467
:10080000543800F08AF9184822461023002100F0DD
:10081000BCF8002806D01C487844BDE81040563883
:1008200000F07BB910BD104870B5006D20F00104D8
:100830000B4800F043F90B4800F040F90A4800F07B
:100840003DF909E0206D20F00105204600F036F961
:10085000204600F073F82C46002CF3D170BD000048
:10086000A4170020F81700204C18002000010020D9
:10087000040100200801002072000000C64D0000A5
:1008800077000000B24D00009E4D00000EB5CDE98E
:100890000001FFF7DFFD029069460120ABBE0EBDEF
:1008A00008B5694600900220ABBE08BD1FB58DE8B3
:1008B000070069460520ABBE04B010BD1FB58DE82A
:1008C0000F0069460620ABBEF6E708B56946009002
:1008D0000920ABBE08BD1CB5CDE9000169460A2060
:1008E000ABBE1CBD704708B5694600900C20ABBE7E
:1008F00008BD754600F018F9AE4605006946534636
:1009000020F00700854618B020B5FFF7ADFCBDE824
:1009100020404FF000064FF000074FF000084FF066
:10092000000B21F00701AC46ACE8C009ACE8C009F7
:10093000ACE8C009ACE8C0098D46704770B5044604
:10094000051F00F0F7F80068002C14BF446870BD64
:10095000002C18BFAC423CBF20466468F8D3016845
:100960000A18AA4218BF456003D12A6805461144F7
:10097000016028684119A1421CBF6C6070BD6168AC
:10098000696021680844286070BD70B5C468A50717
:1009900013D0650211D4B2F5807F09D0B2F5007F83
:1009A00006D0B2F5806F08D1012300F1240106E0E2
:1009B0005D1E6FF07F46B54201D3012070BD01611D
:1009C000C361416024F470611143C160002070BDB7
:1009D0002DE9F0410C4607461646104600F06EF829
:1009E0002078611C61280AD0722802D077283CD177
:1009F00002E00125002405E00225042402E0082489
:100A000048F2020511F8010B2B2806D0622809D004
:100A100011F8010C74280AD00BE045F0030544F0EE
:100A20000204EFE745F0040544F00104EAE744F06E
:100A3000100438462146FFF729FF411C15D000213C
:100A4000316171604FF40071F560F16170612007F0
:100A500004D530460222002100F0E6F8306D40F067
:100A6000010030653046BDE8F0810020FBE72DE94C
:100A7000F0410D460646104C206DC10704D04108D8
:100A800004D020F00104F7E722460EE0542000F0E5
:100A90009CF807000ED0206D47F001010843542157
:100AA00020653846FFF78EFD3A4629463046BDE8B8
:100AB000F0418DE70020D6E7A41700202DE9F0478C
:100AC00004464FF000094FF0FF37C568D4E90486AB
:100AD000A80707D0204600F057F93046FFF7E0FEA0
:100AE000002802DA3846BDE8F087280502D54046DE
:100AF000FFF724FF4C212046FFF764FD206D20F016
:100B0000010020654846EEE710B50446AFF30080CB
:100B10002046BDE81040FFF746BB10B500F07EF957
:100B2000BDE8104000F074B900487047A0180020DC
:100B30007047000000487047A818002070477047B1
:100B40007047704738B504460A4600206946AFF33F
:100B50000080002808BF38BD02460099204600F0FA
:100B600084F9012038BD012000F0D3B9F8B5AFF306
:100B70000080054600200C46102000BF0646A8193C
:100B8000A0420DD9324669460020AFF3008007002D
:100B900008BF00F0BEF90098A04218BF0546C4196E
:100BA000FFF7C8FF05600746F01D20F00700461953
:100BB000284600F053F9B44208BFF8BDA21B3146E5
:100BC0003868BDE8F84000F050B970B50646FFF748
:100BD000B1FF056806F10B0020F00704B4429CBF8A
:100BE000002070BD2B466A68BAB11068A04210D3CD
:100BF00004F1080188423CBF5068586007D351682F
:100C0000101941601168091B016058601460101DC3
:100C100070BD13465268002AE7D121462846FFF7E7
:100C200091FF0028DED170BD2DE9F0410446164643
:100C30000D464769007B80072ED03846FFF745FEFA
:100C400050BB3EB3012E02D0022E25D104E0204637
:100C500000F025F905441DE03846FFF744FEE16841
:100C6000002841F01001E16005DA204600F058F854
:100C70000120BDE8F081C9030BD56268E16A9142A9
:100C800000D81146A26911442269891A814200DD07
:100C900008460544002D01DA0220EAE7E16A6068AF
:100CA000E268814206D29103E06203D522F400316A
:100CB00041F01002A6690027AE4213DCE16A8142CE
:100CC00001D90B4600E0034603EB060C2369ACEBAD
:100CD000030CAC4506DD814201D98C4600E0844618
:100CE0009C4505D1A760276042F02000A5620DE079
:100CF000AD1BE669AE1B8142A66000D90846C01A4A
:100D0000281A20605819606022F02000034908402A
:100D1000E060002084F84870ABE70000BFCFD7FF49
:100D2000C16821F4001141F08001C160002181609F
:100D3000016070472DE9F047814614460E464FF09A
:100D4000FF383248D5685769054209D03846A1694D
:100D5000FFF7C1FD002811DB2C48C0430540E560CA
:100D60002B46324649463846FFF7A0FDA16920F0E0
:100D70000042B21A11440028A16103D02046FFF7B7
:100D8000CFFF4046BDE8F08770B504460569C06AEC
:100D90006168884200D80846E16821F42011E160CA
:100DA000C90312D5A84208D02246411B2846FFF7A6
:100DB000C1FF10B14FF0FF3070BD0020E562C4E903
:100DC0000150E06820F48030E060002070BD10B574
:100DD0000446C06820F02000E060A16AA069884253
:100DE0000DD02046FFF7D0FFE06820F4405040F0DF
:100DF0001000E060A06AA0612069E062606044F2D7
:100E00004001E0688843E06010BD0000100002006F
:100E1000002801D000F01CB87047000010B5014652
:100E200002A000F05DF8012010BD000053494752B8
:100E3000545245443A2052656469726563743A209D
:100E400063616E2774206F70656E3A2000000000A9
:100E500001491820ABBEFEE7260002000021016018
:100E6000C0E90110704710207047034640688C4667
:100E7000002818BF88423CBF03464068F8D3186872
:100E80001844884207D00CF1030020F00700001D31
:100E9000411A521A0146081D0A60FFF74FBD10B5EE
:100EA0000146C268900703D0900607D5886A0AE019
:100EB00000F03EF801210160881E10BD8B69486872
:100EC00018440B69C01A91F848301BB191F84910C9
:100ED000401A10BD1103FCD50028FADD401E10BDDC
:100EE00070B505460C460A2000E06D1C00F018F8AD
:100EF00035B128780028F8D102E0641C00F010F821
:100F000014B120780028F8D1BDE870400A2000F024
:100F100007B810B500F010F8BDE81040FFF778BF33
:100F200008B569468DF800000320ABBE08BD00007F
:100F300000487047A018002010B5012805D00021F6
:100F400003A0FFF7CDFF012010BD09A1F8E70000C5
:100F500053494752544D454D3A204F7574206F66A2
:100F60002068656170206D656D6F7279000000000A
:100F70003A2048656170206D656D6F727920636FEE
:100F80007272757074656400FEB50025174800958F
:100F90000195154902950160891581600573012449
:100FA0000475022606614FF460214560C0E90641E0
:100FB00000F08AF908B100F08BF807200095CDE920
:100FC00001406946094800F0FDF808B100F080F8DA
:100FD000CDE900466946054800F0F4F8002801D044
:100FE00000F076F8FEBD0000002401404416002009
:100FF00070B5044600688168C943C90717D1816884
:1010000021F00101816000F0ADFC05460AE000BF5F
:1010100000F0A8FC401B022804D920688068C04367
:10102000C00706D020688068C043C007F0D0002009
:1010300070BDA06A40F01000A062E06A40F00100BC
:10104000E062012070BD0000F8B50026044600965D
:1010500000688168C943C9072DD0816841F001014A
:101060008160164816490068B0FBF1F000E0401EB0
:1010700000900028FBD100F075FC054616E000BF8B
:1010800000F070FC401B022810D920688068C04323
:10109000C0070BD0A06A40F01000A062E06A40F0E8
:1010A0000100E06284F824600120F8BD20688068B7
:1010B000C043C007E4D10020F8BD00007C00002040
:1010C00040420F00FEE770474FF4807000F044BBD1
:1010D00072B6FEE72DE9F04385B000243548009450
:1010E000019402940394816941F020018161816936
:1010F00001F020010491816941F00401816181695D
:1011000001F004010491816941F008018161806965
:10111000DFF8A48000F00800049000224FF6C171AF
:10112000404600F01AFC01220221404600F015FC66
:10113000DFF888904FF4006700223946484600F0F7
:101140000CFC102001258DE831006946484600F06E
:101150000FFB0320CDE900050226CDE902566946C2
:10116000404600F005FB4FF6C070CDE90005CDE923
:1011700002466946404600F0FBFA280200901048FB
:10118000CDE901046946484600F0F2FA009703965B
:10119000CDE901546946484600F0EAFA00220521EB
:1011A000172000F07DFC172000F06CFC05B0BDE8B6
:1011B000F083000000100240000C014000080140D4
:1011C00000001110F8B50024009490F82420254662
:1011D000012A12D0012280F824204A681F23072AFE
:1011E0000DD20668776B521E02EB820293409F433A
:1011F0000B6893401F43776319E00220F8BD06682F
:101200000D2A0AD2376BD21F02EB820293409F4312
:101210000B6893401F43376309E0F76A0D3A02EB0E
:10122000820293409F430B6893401F43F7620A6812
:10123000072306680A2A0AD3F7680A3A02EB420231
:1012400093409F438B6893401F43F76008E03769E2
:1012500002EB420293409F438B6893401F433761E8
:101260000A68102A01D0112A20D1124B02689A4232
:1012700017D193681B0219D4936843F40003936059
:101280000968102912D10C490C4A0968B1FBF2F126
:1012900001EB8101490000E0491E00910029FBD1CA
:1012A00004E0816A41F020018162012480F8245029
:1012B0002046F8BD002401407C00002040420F0081
:1012C0000068C06C704700002DE9F0414FF0000746
:1012D00004003D467ED0A06A002628B9E66284F864
:1012E0002460204600F07EF82046FFF781FEA16AC8
:1012F000C90600D420B1A06A40F01000A06269E0E5
:10130000A16A21F4885141F00201A1626268E16999
:10131000237B0A4347EA43010A43A1684FF48077DD
:10132000B94209D0012907D05FF0000194F814C038
:10133000BCF1010F02D00AE03946F7E7F3B1A36A26
:1013400043F02003A362E36A43F00103E3622368EE
:10135000D3F804C02CF4694C4CEA010CC3F804C067
:1013600021688B68DFF870C003EA0C0313438B60BD
:10137000A168B9420BD0012909D00CE0DFF85CC0AC
:10138000A3690CEB43330B4343F40061DFE7218A8D
:101390000D05A5F580152168CB6A23F470032B4356
:1013A000CB62216889680E4B1940914208D1E662F0
:1013B000A16A21F0020141F00101A162BDE8F081C2
:1013C000A06A20F0020040F01000A062E06A40F045
:1013D0000100E0620120F1E7FDF7E1FF00E0FFFF1F
:1013E000FE0E1FFF00B585B0002100910191029112
:1013F000039100680E49884217D10E48816941F473
:1014000000718161816901F400710491816941F089
:10141000040181618069694600F0040004900320A2
:1014200000900190044800F0A3F905B000BD000051
:101430000024014000100240000801402DE9F8435B
:1014400000270D460446009700F08CFA804620687D
:101450008168C90508D5A06A40F02000A06284F820
:1014600024700120BDE8F8834168C90503D4C06A2F
:1014700010F4700F2AD0022000F044FB3B490968A9
:10148000B1FBF0F62068036939490B424FEA61016C
:101490004FEAA1121FD1C3684FEA611C13EA0C0F77
:1014A00019D103690B4225D1C068104222D1142002
:1014B00023E0681C0AD02DB100F054FAA0EB08001C
:1014C000A84203D920680068800725D520680068F5
:1014D0008007EED52DE003690B4202D1C1681142AD
:1014E00006D0026923490A4206D1C068084203D1E6
:1014F000542002E0292000E0FC204643009816E03A
:10150000681C11D02DB100F02DFAA0EB0800A84204
:101510000AD90098B04207D2A06A40F00400A06245
:1015200084F8247003209DE70098401C0090B0428E
:10153000E6D321686FF012000860A06A40F40070E2
:10154000A06220688068C0F3424007280CD1207B4D
:1015500050B9A06A20F48070A062A06AC00403D4CD
:10156000A06A40F00100A06200207BE77C00002020
:10157000244992244992240070B5044690F824002E
:1015800001280DD0012084F824002046FFF75CFDDF
:1015900002004FF0000005D084F82400104670BD12
:1015A000022070BDA16A40F20123994341F4807189
:1015B000A1621F4D23681F49AB4218D10E6816F473
:1015C000702F14D0A66A46F48016A6620E687605BF
:1015D00005D5A66A26F4005646F48056A662A66A89
:1015E000F6040AD5E66A26F00606E66206E0A66A72
:1015F00026F48016A6625E68E9E7E06284F82400BB
:101600006FF00200186020688368C3F34243072B21
:1016100005D1A84208D1096811F4702F04D081685F
:1016200041F480118160B9E7816841F4A001F9E7D4
:10163000002801400424014010B5044690F824001D
:10164000012807D0012084F824002046FFF7D0FCB1
:1016500010B107E0022010BDA16A21F4885141F0C9
:101660000101A162002184F8241010BD10B590F88A
:1016700021100022022905D00421816380F8202056
:10168000012010BD01680B6823F00E030B60016898
:101690000B6823F001030B6090F84030C46B01210C
:1016A00001FA03F3636080F8211080F820201046CF
:1016B00010BD000010B590F821100024022903D0BD
:1016C0000421816301243DE001680A6822F00E02D2
:1016D0000A6001680A6822F001020A601A4A016879
:1016E000914201D1012121E0174A1432914201D1E6
:1016F00010211BE0144A2832914201D1891515E0CE
:10170000114A3C32914201D189140FE00E4A503205
:10171000914202D14FF4803108E00B4A6432914289
:1017200002D14FF4801101E04FF08071064A083A6F
:101730005160012180F82110002180F82010416BB8
:1017400001B18847204610BD08000240C00502D5FF
:10175000012002F0DDBD7047044910B50A6802425D
:1017600002D00860FFF7F2FF10BD00001404014032
:101770002DE9F84FDFF8B8910024A9F1040B2346B6
:101780000F2709F1040AABF1040EC9E00125A540B9
:101790002A40AA427DD1674ED1F804C0ACEB0608BE
:1017A000B44532D014DCBCF1030F3AD009DCBCF1F3
:1017B000000F2AD0BCF1010F1CD0BCF1020F31D1B7
:1017C0001DE0BCF1110F17D0BCF1120F2AD119E0A6
:1017D000B8F5881F19D006DCB8F5803F15D0B8F5EC
:1017E000801F1FD111E0B8F5001F0ED0B8F5041FFF
:1017F00018D10AE0CB6815E0CB681B1D12E0CB685E
:1018000008330FE0CB680C330CE08B682BB1012B55
:101810004FF0080303D0456104E0042302E00561B2
:1018200000E00023FF2A01D8064601E000F104068B
:101830004FEA840501D9A5F12005D6F8008007FA02
:1018400005FC28EA0C0803FA05F548EA0508C6F87D
:1018500000804D68ED0062D5374DAE6946F0010657
:10186000AE61AD6924F0030605F001050095334D26
:1018700006EB050CDCF80850A607360F07FA06F849
:1018800025EA0805DFF8B880404503D14FF000088D
:1018900017E044E0DFF8AC80404502D14FF001088A
:1018A0000FE0DFF8A480404502D14FF0020808E0C5
:1018B000DFF89880404502D14FF0030801E04FF077
:1018C000040808FA06F848EA0508CCF808804D68CC
:1018D000D9F80060ED024D4601D5164300E096436D
:1018E0002E604D68DAF80060AD02554601D516430A
:1018F00000E096432E604D68DBF80060AD035D4666
:1019000001D5164300E096432E604D68DEF8006076
:10191000ED03754601D5164300E096432E60641C26
:101920000D682A46E5407FF431AFBDE8F88F00002E
:1019300008040140000011100010024000000140A6
:1019400000080140000C014000100140001401405B
:101950008068084000D0012070470AB101617047DB
:101960000904FBE701488068704700007000002010
:10197000024881680278114481607047700000203D
:10198000074810B5016841F010010160032000F024
:10199000A7F80F2000F006F800F050F8002010BD66
:1019A0000020024030B505461F4887B0C16941F0AC
:1019B0000401C161C06906A900F00400009001A8FB
:1019C00000F0FEF90498B0B100F01AFA400017498F
:1019D000174AB0FBF1F11748491E0260416040F21E
:1019E000E7320021C0E903218160816100F09CFCA5
:1019F000040003D015E000F003FAE8E70D4800F01A
:101A0000D5FC04000DD11E2000F03CF8102D07D2AB
:101A1000002229461E2000F043F80748056000E038
:101A2000012407B0204630BD0010024040420F00A4
:101A300000080040B4070020740000200F4808B5DB
:101A4000816941F001018161816901F00101009129
:101A5000C16941F08051C161C069002200F080502D
:101A600000900F21901E00F01BF80548416821F0FE
:101A7000E06141F00071416008BD000000100240CB
:101A800000000140002809DB00F01F020121914005
:101A90004009800000F1E020C0F80011704700000C
:101AA000F0B40E4B1B680C46C3F30223C3F10705C9
:101AB000042D00D90425191D072901D2002300E0B7
:101AC000DB1E012606FA05F1491E214099409E4081
:101AD000761E16403143F0BC01F09BBA0CED00E0DD
:101AE000064900F0070208684FF6FF03184040EA75
:101AF0000220034A10430860704700000CED00E02C
:101B00000000FA0510B501460020234C012922D01F
:101B1000022939D010291DD161682268D20119D556
:101B20001E48C1F38342C903805C0AD561681B4A21
:101B3000C1F34041921E515C194AB2FBF1F1484396
:101B400001E0184948436168490203D44000032179
:101B5000B0FBF1F010BD226AC2F30121012903D1CB
:101B6000920701D5C80310BD022905D1626A920708
:101B700002D549F6404010BD0329FCD121688903F4
:101B8000F9D54FF2244010BD00F04AF96168C1F365
:101B90008131491C4900DBE7001002400C55000868
:101BA00000127A0000093D002DE9F843054600784F
:101BB000354CC00754D0E0690026C00008D4E06965
:101BC00040F08050E061E069012600F08050009014
:101BD0002E480168C90512D40168804641F480711D
:101BE0000160FFF7BFFE074605E000BFFFF7BAFE42
:101BF000C01B642823D8D8F80000C005F6D5206A99
:101C000010F4407021D0A98801F4407181421CD0A9
:101C1000206A1F49012220F440700A6000220A60F5
:101C20002062C00711D0FFF79DFE074641F28838B9
:101C300008E000BFFFF796FEC11B414502D9032013
:101C4000BDE8F883206A8007F4D5206A696820F42B
:101C50004070084320621EB1E06920F08050E061CE
:101C60002878800705D56068A96820F440400843BB
:101C700060602878C00605D56068E96820F48000B7
:101C8000084360600020DBE7001002400070004065
:101C9000400442422DE9F0470F46050061D0434E13
:101CA000306800F00700B84209D2306820F0070021
:101CB00038433060306800F00700B84251D12868DE
:101CC0003B4C810712D5400703D5606840F4E060C3
:101CD00060602878000703D5606840F46050606059
:101CE0006068A96820F0F000084360602878C007A9
:101CF00028D06868012810D02168022810D08907F0
:101D000000292EDA616821F0030101436160FFF7C9
:101D100029FE804641F288390DE021688903EFE70A
:101D20008901EDE7FFF71EFEA0EB0801494502D946
:101D30000320BDE8F0876068696800F00C00B0EB34
:101D4000810FEFD1306800F00700B8420BD930683E
:101D500020F0070038433060306800F00700B842D8
:101D600001D00120E5E72878400705D56068E968DB
:101D700020F4E060084360602878000706D56068BA
:101D8000296920F4605040EAC100606000F058F812
:101D90006168084AC1F30311515CC84006490860F4
:101DA00006480068FFF7FEFD0020C2E70020024061
:101DB000001002401C5500087C0000207400002028
:101DC0000F2202600C4A536803F003034360536818
:101DD00003F0F0038360536803F4E063C360526868
:101DE0004FF4E06303EAD20202610448006800F0A5
:101DF0000700086070470000001002400020024009
:101E00000448054900684968044AC1F30221515C4D
:101E1000C84070477C000020001002402C5500088C
:101E20000448054900684968044AC1F3C221515C6D
:101E3000C84070477C000020001002402C5500086C
:101E40000E4A51680E4801F00C03042B11D0082BE8
:101E50000FD10C48C1F38343C903C05C0AD5516854
:101E6000084AC1F34041921E515C054A5043B0FB01
:101E7000F1F07047044948437047000000100240E9
:101E800000127A00FA54000800093D002DE9F84FCD
:101E9000040070D02078C04DC00749D06868C0F3F6
:101EA0008100012807D06868C0F38100022809D1A9
:101EB0006868C00306D52868800339D560680028A3
:101EC000E7D035E06068B0F5803F0BD010B1B0F5D9
:101ED000A02F11D0286820F480302860286820F4D2
:101EE000802002E0286840F480302860606890B16B
:101EF000FFF738FD06460AE0286840F48020286095
:101F0000F0E700BFFFF72EFD801B642873D8286818
:101F10008003F7D50CE0FFF725FD064605E000BF7E
:101F2000FFF720FD801B6428F0D828688003F7D4D1
:101F300020789A4E80074FF001094FF0000839D5FC
:101F4000686810F00C0F07D06868C0F381000228A1
:101F500009D16868C00306D42868800714D52069B1
:101F6000012808D110E02069B0B1C6F80090FFF751
:101F7000F9FC074605E00AE1FFF7F4FCC01B022864
:101F8000C4D828688007F7D52868616920F0F80070
:101F900040EAC10028600DE0C6F80080FFF7E2FCCF
:101FA000074604E0FFF7DEFCC01B022823D82868A0
:101FB0008007F7D4207800072CD57948A169D9B1DA
:101FC000C0F80090FFF7CEFC074604E0FFF7CAFC1C
:101FD000C01B02280FD8686A8007F7D571484FF4F4
:101FE000FA510068B0FBF1F0009000BF0098411E6C
:101FF0000091FAD20EE080E0C0F80080FFF7B2FC5A
:10200000074604E0FFF7AEFCC01B022875D8686ADB
:102010008007F7D42078400760D5E8690027C00022
:1020200008D4E86940F08050E861E869012700F0D1
:10203000805000905C480168C90513D4016883464C
:1020400041F480710160FFF78DFC824606E000BF1D
:10205000FFF788FCA0EB0A0064284ED8DBF80000EC
:10206000C005F5D5E06801280AD008B1052813D0CD
:10207000286A20F001002862286A20F0040002E0AB
:10208000286A40F001002862E06841F2883B98B17C
:10209000FFF768FC82460BE0286A40F004002862E3
:1020A000EEE700BFFFF75EFCA0EB0A0159455AD8E6
:1020B000286A8007F6D50CE0FFF754FC824605E05D
:1020C000FFF750FCA0EB0A0159454CD8286A80075D
:1020D000F6D41FB1E86920F08050E861E06988B368
:1020E0006968C1F38101022944D00228C6F86080E2
:1020F00004D0FFF737FC044638E034E0FFF732FC49
:10210000074604E0FFF72EFCC01B02282BD82868E6
:102110008001F7D4206AB0F5803F05D16868A168D6
:1021200020F4003008436860D4E908010843696876
:1021300021F4741108436860C6F86090FFF712FC40
:10214000044606E025E000BFFFF70CFC001B022858
:1021500009D828688001F7D51BE000BFFFF702FC13
:10216000001B022802D90320BDE8F88F28688001EF
:10217000F4D40EE00128F7D06868226A00F48031B8
:10218000914204D1616A00F47010884201D00120AC
:10219000EAE70020E8E700000010024000004242A9
:1021A000800442427C0000200070004070B50400B2
:1021B00009D0606A002540B125616561A56294F887
:1021C000510040B10CE0012070BD6068B0F5827F25
:1021D000F4D0E561F2E784F85050204600F040F872
:1021E000022084F851002068016821F0400101605C
:1021F000A088218900F4827001F404410843A18978
:1022000001F400610843217C01F002010843217DB3
:1022100001F001010843218B01F400710843217F83
:1022200001F03801084394F8201001F080010843C0
:10223000218D01F40051084321680860A069042140
:1022400001EA1040216848602068C16921F40061FA
:10225000C1616565012084F85100002070BD000057
:1022600000B585B0002100910191029103910068B1
:102270000F4988421AD10F48816941F48051816128
:10228000816901F480510491816941F00401816107
:102290008069694600F004000490A02000900220AC
:1022A0000190032003900448FFF762FA05B000BDD7
:1022B00000300140001002400008014070477047A4
:1022C00070B590F83C20012A26D0012480F83C40CB
:1022D000022280F83D2003685A689D6822F070064B
:1022E0000A6832435A600D4B02689A4208D0B2F134
:1022F000804F05D00A4B9A4202D00A4B9A4204D131
:10230000496825F080031943916080F83D40002121
:1023100080F83C10084670BD022070BD002C0140C2
:10232000000400400008004010B5040003D094F8F9
:102330003D0010B107E0012010BD002084F83C00F2
:10234000204600F01FF8022084F83D00211D20687F
:1023500000F06EFC012084F8460084F83E0084F80A
:102360003F0084F8400084F8410084F8420084F87B
:10237000430084F8440084F8450084F83D000020C0
:1023800010BD000008B500680649884208D106481B
:10239000816941F400618161806900F4006000900E
:1023A00008BD0000002C01400010024090F83D10D4
:1023B000012901D001207047022180F83D100168F9
:1023C000CA6842F00102CA6000680B49884208D01E
:1023D000B0F1804F05D00949884202D008498842AF
:1023E00004D1816801F00701062903D0016841F09A
:1023F0000101016000207047002C014000040040F2
:102400000008004070B5044690F83C000025012803
:1024100017D0012684F83C60022084F83D00206833
:10242000826822F0770222F47F4282600868502896
:1024300038D00DDC20284FD005DC90B3102811D106
:102440004AE0022070BD302846D040280AD13BE047
:1024500060282FD070280DD0B0F5805F03D0B0F584
:10246000005F12D0012584F83D60002084F83C0014
:10247000284670BDCB68D1E90121206800F014FC2A
:102480002068816841F0770109E0CB68D1E901213A
:10249000206800F009FC2068816841F48041816077
:1024A000E1E719E0CA684968206800F00FFC502194
:1024B000206806E0CA684968206800F018FC6021BE
:1024C000206800F0FBFBCEE7CA684968206800F08E
:1024D000FDFB40212068F4E7226801461046F0E742
:1024E00070472DE9F04104460068C66805694FF061
:1024F0000007A90713D5B10711D5F91E0161012005
:102500002077206880698007204602D0FFF7E8FF27
:1025100004E000F07EF8204600F07CF8277768079A
:1025200016D5700714D521686FF0040008610220E9
:1025300020772068806910F4407F204602D0FFF7A2
:10254000CFFF04E000F065F8204600F063F827773D
:10255000280715D5300713D521686FF008000861EA
:10256000042020772068C0698007204602D0FFF74A
:10257000B7FF04E000F04DF8204600F04BF8277755
:10258000E80616D5F00614D521686FF01000086132
:10259000082020772068C06910F4407F204602D0D0
:1025A000FFF79EFF04E000F034F8204600F032F818
:1025B0002777E80708D0F00706D021686FF0010000
:1025C0000861204600F028F8280608D5300606D510
:1025D00021686FF0800008612046FFF76FFE6806F3
:1025E00008D5700606D521686FF0400008612046C6
:1025F00000F01CF8A8060AD5B00608D521686FF0CF
:10260000200008612046BDE8F041FFF758BEBDE854
:10261000F08170477047000000680349884201D18B
:10262000FFF7A6B9704700000008004070477047E8
:1026300070470000F8B5016804460868CA684B692D
:1026400010F00F0F4FF0000559D003F0010602F40F
:102650009077374365D0C10705D0D10503D5616CAC
:1026600041F001016164410705D5D90703D0616CD0
:1026700041F002016164810705D5D90703D0616C7F
:1026800041F004016164010707D502F020013143E4
:1026900003D0616C41F008016164616C00293AD09B
:1026A000800604D5900602D5204600F061FB206824
:1026B0004069616CC0F38010090700D460B3204604
:1026C00000F02FFB20684069400621D520681430B7
:1026D00050E8001F21F0400140E80012002AF5D127
:1026E000E06BA8B16D494163E06BFEF7E3FF0028A2
:1026F00011D0E06B416B01B0BDE8F04008478306A4
:102700000FD593060DD52046BDE8F84000F030BB4C
:102710002046FFF78DFFF8BD2046FFF789FF65646F
:10272000F8BD266B2023012E7CD1C6067AD5D606AD
:1027300078D508684868009048694FF0020640065E
:1027400040D5E16B086840680004000CE8D0A28D19
:102750008242E5D9E085886920282DD020680C3098
:1027600050E8001F21F4807140E80012002AF5D1E2
:102770002068143050E8001F21F0010140E80012E9
:10278000002AF5D12068143050E8001F21F04001E4
:1027900040E80012002AF5D184F842302563206811
:1027A0000C3050E8001F21F0100140E80012002A10
:1027B000F5D1E06BFEF75AFF6663A08DE18D401AFC
:1027C00081B22AE0A08DE18D401A81B2E08D00280F
:1027D000A6D00029A4D022680C3252E8000F20F4C1
:1027E000907042E80007002FF5D12068143050E8BF
:1027F000002F22F0010240E80027002FF5D184F8D5
:102800004230256320680C3050E8002F22F010027F
:1028100040E80023002BF5D166632046FFF707FF51
:10282000F8BDFFE705062BD5150629D594F841001C
:102830002128F5D1A068B0F5805F01D12069B0B141
:10284000206A411C2162216800784860E08C401EAB
:102850000004000CE084E3D12068C16821F080010D
:10286000C1602068C16841F04001C160D8E7206ABA
:102870000088C0F308004860206A801C2062E5E7F9
:102880004006CDD55006CBD5CA68204622F040027E
:10289000CA6084F8413000F00FF9C1E7132D000839
:1028A00070B5040004D094F84100002510B106E092
:1028B000012070BD84F84050204600F023F8242009
:1028C00084F841002068C16821F40051C1602046AD
:1028D00000F0B0FA2068016921F49041016120689C
:1028E000416921F02A0141612068C16841F4005129
:1028F000C1606564202084F8410084F8420065636B
:10290000002070BD70B586B000240094019402943C
:1029100003942B4E03682B49022003222A4DB34215
:1029200021D18B6943F480438B618B6903F480432D
:1029300004938B6943F004038B618969039201F06E
:10294000040104910102CDE9001069462846FEF712
:102950000FFF2815CDE90004694628460294FEF7CA
:1029600007FF06B070BD194EB342FAD1CB6943F4EC
:102970000033CB61CB6903F4003304938B6943F0DC
:1029800004038B618969039201F00401049104211D
:10299000CDE9001069462846FEF7EAFE0820CDE999
:1029A0000004694628460294FEF7E2FE0022052153
:1029B0002620FFF775F82620FFF764F8D1E700001E
:1029C000003801400010024000080140004400406F
:1029D00090F84230202B01D00220704721B11AB16B
:1029E0000023036300F082BA0120704710B504464B
:1029F0000068074988420AD10648007800F032FB97
:102A00002046BDE8104001220249FFF7E1BF10BD9A
:102A100000440040FC0000202DE9F843044690F8F3
:102A20004100984616460D46202802D00220BDE8F7
:102A3000F88385B17EB100206064212084F84100D4
:102A4000FEF790FFA6848146E684A0682027B0F5B3
:102A5000805F02D003E00120E9E7206910B12E4633
:102A600000250EE000260CE08021204600F059FAF7
:102A7000A8B9C6B116F8010B21684860E08C401E69
:102A8000E084E08C4B464FF00002CDF80080002837
:102A9000EAD14FF04001204600F043FA40B184F8FB
:102AA00041700320C3E735F8020BC0F30800E3E7E9
:102AB00084F841700020BAE77047FEE7FEE7FEE7C2
:102AC000114810B50F4901604FF4827141604FF415
:102AD000004181600021C1604FF400720161C0E9D2
:102AE00005120822C0E90721416281620A21C16200
:102AF000FFF75CFB002803D0BDE81040FEF7E8BA02
:102B000010BD00000030014074160020012000F0CC
:102B100085FEFBE710B5502080F31188BFF34F8F7F
:102B2000BFF36F8F02F080F918B104494FF0805065
:102B30000860002080F3118810BD000004ED00E063
:102B400030B593B028216846FDF73CFD14210AA852
:102B5000FDF738FD002501200F9510951195010412
:102B600012958DE8230004904FF4E010CDE9081091
:102B7000022407946846FFF789F908B172B6FEE7A8
:102B80000AA90F2081E831004FF48060CDE90D05DE
:102B900002210AA8FFF77EF808B172B6FEE74FF4EB
:102BA000004011900F940FA8FEF7FEFF002801D0FF
:102BB00072B6FEE713B030BD7047000010B586B0A6
:102BC0000024174800940194029403940494134938
:102BD000059401604721C0E901144FF6FF71C0E977
:102BE000031444618461FFF79FFB08B1FEF770FA9C
:102BF0004FF48050009069460948FFF703FC08B184
:102C0000FEF766FA049404A905480594FFF758FBFB
:102C1000002801D0FEF75CFA06B010BD002C014080
:102C20005C1700200148FFF75CBC0000B4070020DF
:102C3000F0B50268194B1A4C1A4D4FF08047984274
:102C400005D0B84203D0A04201D0A84203D122F05F
:102C500070064A683243984205D0B84203D0A04279
:102C600001D0A84203D122F44074CA6822434C69BF
:102C700022F08002224302608A68C2620A6882628D
:102C8000984201D109690163012141610169C907C4
:102C900003D0016921F001010161F0BD002C014068
:102CA000000400400008004010B5846842EA032296
:102CB00024F47F440A432243826010BD826822F0DC
:102CC00070020A4342F007018160704710B5036A41
:102CD000046A24F001040462846924F0F00444EAE4
:102CE000021423F00A020A438461026210BD10B587
:102CF000036A046A24F010040462846923F0A003C8
:102D000024F4704444EA023243EA01118261016210
:102D100010BD10B5406A0021C185C184FFF788FC51
:102D200010BD01680C3151E8002F22F4907241E887
:102D30000023002BF5D10168143151E8002F22F057
:102D4000010241E80023002BF5D1016B012909D1D3
:102D500001680C3151E8002F22F0100241E80023F5
:102D6000002BF5D1202180F842100021016370472B
:102D700008B590F84210222901D0022008BD8268CF
:102D80004FF480539A4201D1016921B1816A9A427C
:102D90001BD04AB10AE00268816A5268C2F3080295
:102DA0000A80816A891C08E0026972B1026852686F
:102DB00002F07F020A70816A491C8162C18D491E3E
:102DC0000904090CC18503D01BE002685268F1E7D1
:102DD0000168CA6822F02002CA600168CA6822F449
:102DE0008072CA6001684A6922F001024A612021AA
:102DF00080F8421000214163026B012A03D0FFF7E3
:102E0000F5FD002008BD016301680C3151E8002F79
:102E100022F0100241E80023002BF5D101680A6876
:102E2000D20602D50A6849680091818DFFF7FFFB41
:102E3000E7E7000070B5044600680169E26821F424
:102E40004051114301612169A06808436169084349
:102E50002168CA6841F20C639A430243CA60206841
:102E60004169A26921F44071114341611E49206802
:102E7000884202D1FEF7D4FF01E0FEF7C1FF00EB6C
:102E8000C00101EB0012606864218000B2FBF0F326
:102E9000B3FBF1F36FF018067343B2FBF0F5B2FB2E
:102EA000F0F605EB8305322303EB0515B5FBF1F5D1
:102EB000B6FBF1F605F0F00505EB0615B2FBF0F6F2
:102EC000B2FBF0F0B0FBF1F06FF01802504306EBEC
:102ED000800003EB0010B0FBF1F0216800F00F0060
:102EE0002844886070BD00000038014081628285FE
:102EF000C28500214164222180F84210016921B17C
:102F00000168CA6842F48072CA6001684A6942F086
:102F100001024A610068C16841F02001C1600020DF
:102F200070472DE9F843984617460D460446089E1B
:102F300024E0701C22D0FEF715FDA0EB0800B04283
:102F40001AD8CEB12068C168490717D5802D15D091
:102F5000402D13D00168C94309070FD4016800252B
:102F6000406800902046FFF7DCFE0820606484F88B
:102F700040500120BDE8F8830320FBE7206800688B
:102F800035EA000004D00020B842D2D00020F1E79A
:102F90000120F9E70C4810B50A4901604FF4E1310E
:102FA0004160002181600C22C160C0E9041281618E
:102FB000C161FFF775FC002803D0BDE81040FEF7A3
:102FC00087B810BD00380140CC1600200148FFF73B
:102FD00031BB0000141700200C4810B50A490160ED
:102FE0004FF4E1314160002181600C22C160C0E9F1
:102FF00004128161C161FFF753FC002803D0BDE8D2
:103000001040FEF765B810BD0044004014170020C2
:10301000FEE70907090E002804DB00F1E02080F834
:103020000014704700F00F0000F1E02080F8141D3C
:10303000704770B502680026134635460AE050F81E
:103040002540944201D2224602E09C4200D9234608
:1030500026446D1C8D42F2DBD018301A891EB0FB5D
:10306000F1F070BD2DE9F041584C0746564EA0785E
:10307000002537542078052831D055A13046FDF77A
:10308000D7F918B3A57030213046FDF779FA2078CA
:1030900068B1012810D0022813D003281DD1657013
:1030A000042020704CA0BDE8F041FDF7EFB865703A
:1030B000012020704CA0F6E76570022020704EA021
:1030C000F1E765700320207050A0ECE7A078401C69
:1030D000C0B2A070302800D1A570BDE8F081A62F45
:1030E00006D0E5704EA13848FDF7A2F970B903E0AB
:1030F000E078401CE070F5E74CA13348FDF798F903
:1031000020B94EA13048FDF793F938B12E494FA0B0
:10311000FDF7BCF852A0FDF7B9F83AE0A178042910
:1031200002D02F292BD00BE03078A52808D1707859
:10313000A52805D1B078A52802D1F078A52805D01A
:10314000491CC8B2A070302829D029E03A4649A0CD
:10315000FDF79CF8307901280DD002280DD06420AD
:1031600001F0DCF8A57030211748FDF709FA47A0F7
:10317000FDF78CF814E01E20F2E73C20F0E7A08871
:103180000023401CA08045481A460F49006801F002
:10319000A9FCA57030210C48FDF7F2F900E0A570FC
:1031A000E078042899D1A1883DA0FDF76FF8E5707B
:1031B000A580A57030210448FDF7E2F9BDE8F04193
:1031C000012001F0C1B80000FC0700203C000020F5
:1031D0004F4B0D0A00000000CDCBB3F64154C4A301
:1031E000CABDB3C9B9A60A00B3C9B9A6BDF8C8EB30
:1031F0004154C4A3CABD0A00B9D8B1D5D7B4CCAC28
:10320000CFD4CABEB3C9B9A60A000000C9E8D6C364
:10321000C9E8B1B8C3FBB3C6B3C9B9A60A00000078
:10322000434F4E4E454354454400000044495343E8
:103230004F4E4E4543544544000000004445564916
:103240004345204552524F5200000000CEDEB9D80F
:10325000D7B4CCACD0C5CFA2CEAA25730A0000004B
:10326000C7E5B3FDCEDEB9D8D7B4CCACD0C5CFA2BC
:103270000A000000B5B1C7B0696E646578CEAA25B2
:10328000752CCAFDBEDDCEAA25580A00C8C8C3DC0D
:10329000B6C8C9E8D6C3B3C9B9A60A006C000020F5
:1032A000CDBCC6ACB4ABCAE4BDE1CAF8A3ACD7DCB4
:1032B000D0D0CAFDCEAA25750A00000008A0FCF7F0
:1032C000E5FF0CA0FCF7E2FF00F016F90DA0FCF7FB
:1032D000DDFF4FF47A74204601F0A6F9FBE7000009
:1032E000BFAACABCD4CBD0D0C0B6D1C0C8CECEF154
:1032F0000A000000BFAACABCB3F5CABCBBAFC0B6C7
:10330000D1C00A00C0B6D1C0BFAACABCBDD3CAD5FD
:10331000CAFDBEDD0A00000010210148FEF718BBFF
:103320000008014070B51F4C0125207878B9FFF7DF
:10333000F3FF48B90A2001F077F9FFF7EDFF18B95C
:103340002570FEF70FFB60602078002814D0FFF78F
:10335000E3FF4FF47A7601280FD0FEF703FB616894
:10336000401AB04208D96078002805D10EA0FCF7B9
:103370008DFF00F0B1F9657070BDFEF7F3FA61687A
:103380000025401AB04206D90AA0FCF77FFF00F0E2
:1033900095F9657004E00CA0FCF778FF00F07CF96B
:1033A000257070BD040000206C6F6E6720636C692F
:1033B000636B0A006C6F6E6720636C69636B2066D9
:1033C0007265650A0000000073686F727420636C98
:1033D00069636B0A0000000006A0FCF757FF07E0D6
:1033E000FFF7A0FF142001F01FF9641CFA2CF7D19D
:1033F0000024F5E7BFAAC6F4D4CBD0D0B0B4BCFC4F
:10340000C8CECEF10A00000070B5144DA5F1080435
:10341000207815F820104FF4007000F0F7F92078AC
:1034200005EB800041784FF4807000F0EFF92078D0
:1034300005EB80008178802000F0E8F9207805EB2A
:103440008000C178402000F0E1F92078401CC0B233
:103450002070082801D30020207070BD1C000020BF
:1034600013B54FF6FF73012269460248FFF7D4FAFD
:1034700000981CBDCC160020004870470C000020AE
:1034800070B594B000246D460AAE1648FEF774F885
:1034900064211448FDF7D2FF20B91248FDF710FF50
:1034A00045F824000F48FEF767F864210D48FDF742
:1034B000C5FF20B90B48FDF703FF46F82400094873
:1034C000FEF7BAF8641C0A2CDFDB0A216846FFF716
:1034D000B0FD054C0A2120600AA8FFF7AAFD606034
:1034E00014B070BD4416002064000020EFF3058086
:1034F000002800D00120704770B5364C00254FF4ED
:103500007A762078052859D2DFE800F003182D429A
:103510005F006078401C60702FA0FCF7B7FEA068C9
:10352000FCF798FF82B233463148A168FFF774FA7E
:1035300060780A2842D165702EA03DE06078401C7A
:10354000607031A0FCF7A2FEE068FCF783FF82B256
:1035500033462748E168FFF75FFA60780A282DD1E3
:10356000657030A028E06078401C607032A0FCF7E5
:103570008DFE2069FCF76EFF82B233461C4821693C
:10358000FFF74AFA60780A2818D1657030A013E076
:103590006078401C607032A0FCF778FE6069FCF730
:1035A00059FF82B2334612486169FFF735FA6078F5
:1035B0000A2803D1657030A0FCF768FE2078052842
:1035C00007D0304601F030F89BE7052020702EA090
:1035D000F2E770BD3C000020B7A2CBCDBDF8C8EB30
:1035E0004154C4A3CABDB5C44154D6B8C1EE0A0003
:1035F00014170020D6D8B8B4BDF8C8EB4154C4A302
:10360000CABDCAA7B0DC0A00B7A2CBCDB9D8B1D524
:10361000D7B4CCACCFD4CABEB5C44154D6B8C1EE31
:103620000A000000B9D8B1D5D7B4CCACCFD4CABE4B
:10363000CAA7B0DC0A000000B7A2CBCDC9E8D6C348
:10364000C9E8B1B8C3FBB5C44154D6B8C1EE0A004D
:10365000C9E8D6C3C9E8B1B8C3FBCAA7B0DC0A0041
:10366000B7A2CBCDCDCBB3F64154C4A3CABDB5C42C
:103670004154D6B8C1EE0A00CDCBB3F64154C4A331
:10368000CABDCAA7B0DC0A00C0B6D1C0B3F5CABC77
:10369000BBAFB3C9B9A60A0010B503A0FCF7F6FD8D
:1036A00005490120887010BD427574746F6E20B595
:1036B000A5BBF7210A0000000400002010B503A0FC
:1036C000FCF7E4FDBDE8104000F082B8CDA3D6B908
:1036D000D7DFD6BD0A00000010B50AA0FCF7D6FD62
:1036E000FFF7CAFE817800290BD1C078032801D0EA
:1036F000002806D107A0FCF7C9FDBDE8104000F086
:103700004FB810BD427574746F6E20B3A4B0B4216D
:103710000A000000BFAACABCD7DFD6BD0A0000005D
:1037200088B0FEF72DF9FFF70BFAFDF7D3FCFDF794
:103730002BFCFFF7C5F9FFF72DFCFFF74DFCFFF75A
:103740003DFA0CA0FCF7A2FD01220E490E48FFF73E
:103750003FF91C220D496846FCF7E0FE002168464F
:1037600000F068F80A49086000F0F4FD00F05DF828
:10377000FEE70000B4F2D3A1BBFABFAACABCD4CB07
:10378000D0D00A00FC00002014170020D4540008F8
:103790000000002001460020842900D0C81C70478A
:1037A0001CB5094C606850B908490022D1E90001F4
:1037B000CDE900010121684600F066F86060BDE8CF
:1037C0001C40022100F080B814000020F0540008D2
:1037D00010B500214FF4007000F018F800214FF4EC
:1037E000807000F013F80021802000F00FF8002115
:1037F000402000F00BF804484068002803D0BDE8E2
:10380000104000F08FB810BD14000020CAB281B281
:103810000148FEF7A2B80000000C014010B500B945
:10382000012000F001FF002010BD10B500F064FF82
:10383000002010BD7FB50D4604464169B0F908006F
:1038400081B1A16971B1FFF7A5FFD4E905128DE837
:103850000700D4E900102B46226901F0A6FA039074
:1038600004B070BDFFF796FF03A9CDE90001208ADF
:103870002B4682B2D4E9001001F06AFA012801D087
:103880000020EDE70398EBE71CB511C86CB1CDE95A
:103890000004012907D0002013460246012109A097
:1038A00001F02AFC1CBD0120F6E70090012907D099
:1038B000002013460246012102A001F003FC1CBDBA
:1038C0000120F6E7000000002DE9FC410025074635
:1038D0002E4601950C0000D10124FFF707FE00964B
:1038E00090B101AB22460921384601F04DFC012878
:1038F00012D1019888B10A494FF080500860BFF397
:103900004F8FBFF36F8F08E0002322460421384613
:1039100001F03AFC012800D0FF252846BDE8FC81D3
:1039200004ED00E07CB5002506462C460195FFF726
:10393000DDFD0094A0B101AB00220821304601F06A
:1039400023FC012801D0FF207CBD019888B10A49E1
:103950004FF080500860BFF34F8FBFF36F8F08E0C8
:1039600000231A460321304601F00EFC012800D046
:10397000FF2528467CBD000004ED00E02DE9F04164
:10398000184C0F460546E6682068001D00F018FD3B
:1039900038B9206890F82C100120884021698143B3
:1039A0002161681C07D137B12168BDE8F0410E489C
:1039B000091D00F055BD20683544B54245602168B9
:1039C00005D2A06BBDE8F041091D00F031BD606B70
:1039D000091D00F02DFDA06A854200D2A562BDE858
:1039E000F081000080000020480900202DE9F0410E
:1039F000054600F041FD2E4CA068401CA0602068E8
:103A00002C4F10B1606940B32DE02560A0680128FB
:103A100029D1002606EB860007EB800000F0FAFCB7
:103A2000761C072EF6D323488C3000F0F3FC214897
:103A3000A03000F0EFFC1F48B43000F0EBFC1D4854
:103A4000C83000F0E7FC1B48DC3000F0E3FC19480C
:103A50008C3060631430A06305E02068E96AC06AB6
:103A6000884200D82560606A401C6062E96A0120D3
:103A7000226988401043206101EB810007EB800040
:103A8000291D00F0EDFC00F017FD606900280CD046
:103A90002068E96AC06A884207D207494FF080501F
:103AA0000860BFF34F8FBFF36F8FBDE8F081000058
:103AB000800000206C08002004ED00E038B500F024
:103AC000DBFC104C2068C8B90F4800F0A3FC0E487E
:103AD000143000F09FFC0C48E060143020610A4B69
:103AE0000020C03B009003F148020C210A2000F0A6
:103AF000D1FE206010B105A100F060FDBDE83840A6
:103B000000F0DABCBC0000201C0A0020546D725189
:103B10000000000030B4026C0B46002A0BD0C168D4
:103B20001144C1608468A14201D30168C16030BC06
:103B30001846FCF7AEBC30BC70472DE9F041856BF0
:103B4000174604460026026C82B1C7B1E068FCF754
:103B5000A0FCE168206C091AE1602268914202D25F
:103B6000A168081AE060022F16D017E02068A8B9F3
:103B7000A06801F0BFF906460020A0600EE0606872
:103B8000FCF787FC216C606808446060A16888428B
:103B900004D32068606001E005B16D1E6D1CA56353
:103BA0003046BDE8F08110B5044690F8510058B198
:103BB00001280CD002280FD0502080F31188BFF3C9
:103BC0004F8FBFF36F8FFEE7206B00F089FC20461C
:103BD000BDE8104000F084BC10BD000010484FF458
:103BE0004061420706D0C01D0D4920F00700411A70
:103BF000C1F540610B4A00230144C2E900030839C2
:103C0000183A21F0070111604B600B600B1AC0E9F4
:103C1000001393604FF00040536050617047000004
:103C2000440A0020E8000020144E154CA6F1C807F5
:103C30004FF08058DFF84C9012E000BF00F01CFC01
:103C4000F068C568281D00F0BBFBA068401EA0609E
:103C50006068401E606000F02FFC2846FFF7A3FF5D
:103C600060680028EAD138680128F9D9C9F80080CD
:103C7000BFF34F8FBFF36F8FF2E7000034090020CE
:103C80008000002004ED00E00346009829B10260A6
:103C9000C0E90F31012100F031BE0060F8E72DE9E5
:103CA000F0479A46DDE9098481466FF00303206BF3
:103CB00003EB82021044089E20F00707780707D024
:103CC000502080F31188BFF34F8FBFF36F8FFEE753
:103CD000002561B1002023180A5C83F834200A5CB7
:103CE00012B1401C1028F6D384F8435001E084F848
:103CF0003450072E00D30626E662C4E91165201D64
:103D000000F093FB04F1180000F08FFB2461C6F172
:103D100007006462A061E56484F850505246494649
:103D2000384600F07BFA2060B8F1000F01D0C8F8E7
:103D30000040BDE8F0872DE9F0471E46DDE9089414
:103D400017460D00804615D0002C11D0FFF7B6FEA7
:103D500004F11801C4F8008081E86002201D00F021
:103D600064FB002F04D014F8240F40F004002070EE
:103D7000BDE8F087502080F31188BFF34F8FBFF369
:103D80006F8FFEE730B5114900E011460A688242A4
:103D9000FBD34B685C18844203D1406818444860E8
:103DA000084643681C18944209D1084C183C246802
:103DB000A24209D052681A4442600A68126802603E
:103DC000814200D0086030BD0460F9E7E8000020BF
:103DD00070B5002441600B4D0061914206D8D11AA4
:103DE0008269914206D2011D286907E09A4203D2F6
:103DF000994201D3012403E0011DE86800F018FB9B
:103E0000204670BDBC00002010B5044600F034FB15
:103E1000A06B28B15FF0000400F04EFB204610BDFF
:103E20000124F9E730B587B0394D67E004980028E0
:103E300064DB069C606910B1201D00F0C1FA03A884
:103E400000F0D8F8024604980A2857D2DFE800F0BC
:103E50000505052D334A05052D3394F8240040F05F
:103E6000010084F824000599A069059B01442046BF
:103E7000FFF7AEFF68B3216A2046884794F8240014
:103E800040073BD5002000900598A1690023421807
:103E90001946204601F078F9D8B9502080F31188EE
:103EA000BFF34F8FBFF36F8FFEE714F8240F20F09E
:103EB0000100207022E094F8240040F0010084F812
:103EC00024000598A06128B1811813462046FFF709
:103ED0007FFF13E0502080F31188BFF34F8FBFF3B3
:103EE0006F8FFEE794F82400810703D4204600F08A
:103EF000F7FA03E020F0010084F82400002204A96E
:103F0000286800F04FFE002890D107B030BD0000B7
:103F1000BC0000202DE9FC410F46054600F030FCB6
:103F200001A800F067F80446019818B101F068F89C
:103F3000BDE8FC81254EAFB130690068D0B30027E1
:103F4000291B3A46306800F04DFB01F059F8002873
:103F5000EED11F494FF080500860BFF34F8FBFF381
:103F60006F8FE5E7A542EBD801F04AF8F0682746E5
:103F7000C068C468201D00F023FA94F824004107AB
:103F800019D5A0692B4641193A462046FFF720FF74
:103F9000A8B100200346014600902A46204601F0C1
:103FA000F3F860B9502080F31188BFF34F8FBFF34F
:103FB0006F8FFEE707E020F0010084F82400216AFB
:103FC00020468847B4E70127BAE70000BC0000207C
:103FD00004ED00E00648416B096829B1416BC968EE
:103FE000C9684968816270474FF0FF31FAE7000005
:103FF0008000002070B5054600F010FF064E044614
:10400000B068844203D200F009F8012000E00020EB
:1040100028602046B46070BDBC000020F8B5194D82
:1040200020E0C068C4680668201D00F0C9F9216A54
:104030002046884794F82400400713D5A0693044EF
:10404000B04206D924616060211DE86800F0F0F9F3
:1040500008E000200346014600903246204601F069
:1040600093F838B1E86801680029DAD12969C5E90F
:104070000310F8BD502080F31188BFF34F8FBFF3BA
:104080006F8FFEE7BC00002008484068401C4FF0DE
:10409000500080F3118804D0BFF34F8FBFF36F8FB0
:1040A000FEE7BFF34F8FBFF36F8FFEE7F0000020F6
:1040B000074CE068016841B1C0680021D0F80000F9
:1040C000FFF728FFFFF7AEFEF3E701210020F7E737
:1040D000BC0000202DE9F041044600F0CDF994F930
:1040E000455004F1240609E0606A48B1304600F00A
:1040F0004DFF08B100F0C6FA6D1E6DB2002DF3DC65
:104100004FF0FF3684F8456000F0D6F900F0B4F9BE
:1041100094F9445004F1100709E0206948B1384689
:1041200000F034FF08B100F0ADFA6D1E6DB2002D45
:10413000F3DC84F84460BDE8F04100F0BDB9000054
:104140002DE9F0410546002700F01AFB324E306899
:1041500008B9FFF743FD706905424ED1C5B3083574
:1041600068070ED005F00700C0F108000544680795
:1041700007D0502080F31188BFF34F8FBFF36F8FAC
:10418000FEE72DB37068854237D8234818300146C2
:104190000C6801E020460C466168A94202D2216801
:1041A0000029F7D131688C4227D007682168016067
:1041B00060680837411B10290FD96019420708D0E1
:1041C000502080F31188BFF34F8FBFF36F8FFEE74E
:1041D00013E041606560FFF7D5FD61687068401AC3
:1041E0007060B268904200D2B060706901430020F4
:1041F000C4E90001F068401CF06000F001FF78079E
:1042000007D0502080F31188BFF34F8FBFF36F8F1B
:10421000FEE73846BDE8F081D000002010B5031F4E
:104220004FF080741C601B1F21F001011960191FE1
:10423000024B0B60143940380A6010BD89400008F9
:104240000F4810B5006800F0F5FF0E4901F006F8C0
:104250006FF00B0101F000F900F0CCFF4000642288
:10426000A0F6E44050434FF4617100F5E17090FB1B
:10427000F1F0C1B204486429017000D9027010BD88
:1042800064000020333353400C00002010B5FFF7CA
:10429000F7F8BDE81040FFF7D3BF000008B515A040
:1042A000FBF7F4FF1848002164220160C17002701E
:1042B0001E224270817001714FF6FF7441F2883501
:1042C000FFF7E4FF10492346042208788DF8000028
:1042D00048788DF8010088788DF80200C8788DF84C
:1042E000030069460948FEF797FB284600F09CF951
:1042F000E6E70000BFAACABCD4CBD0D0B1A8B8E6CC
:10430000C8CECEF10A0000000C00002014170020D7
:1043100001498870704700000C00002010B5044669
:10432000014603A0FBF7B2FF0648047010BD000071
:10433000B4F2D3A1C3DCB6C8C9E8D6C32025640A49
:10434000000000005400002001490871704700007F
:104350000C0000201CB500240094234680220CA1F0
:104360000E48019400F0F4FC0320CDE90004002382
:1043700080220BA10D4800F0EBFC0520CDE90004E4
:1043800000234FF480720AA10C4800F0E1FC1CBD30
:10439000627574746F6E5F7461736B00D93300085B
:1043A0007265706F72745F7461736B009D42000878
:1043B000626C655F7461736B00000000BD320008C1
:1043C000D0E9013201699A60D0E901235A604A6854
:1043D000824201D182684A60002202610868401E60
:1043E0000860086870470000034B036003F1540045
:1043F00008608020106070470C010020044B0360AF
:1044000003F1540008604FF48070106070470000A2
:104410006003002000F108014FF0FF32C0E90112F3
:10442000C160016100210160704700210161704796
:1044300030B50B685A1C02D000F1080202E0026994
:1044400004E02246546825689D42FAD953684B60BF
:1044500099608A60516008610168491C016030BD43
:1044600042684A6093688B60936859609160086104
:104470000168491C01607047502080F31188BFF328
:104480004F8FBFF36F8F0A494868401C486001286E
:104490000CD10848006810F0FF0F07D0502080F3BF
:1044A0001188BFF34F8FBFF36F8FFEE77047000097
:1044B000F000002004ED00E00849486828B1401EE3
:1044C000486001D180F311887047502080F3118833
:1044D000BFF34F8FBFF36F8FFEE70000F0000020A7
:1044E00070B500282AD0164DA0F1080460686969EB
:1044F000084207D1502080F31188BFF34F8FBFF3DC
:104500006F8FFEE722683AB1502080F31188BFF325
:104510004F8FBFF36F8FFEE78843606000F030F984
:1045200060686968084468602046FFF72BFC2869CA
:10453000401C2861BDE8704000F062BD70BD000005
:10454000D00000204FF0E020002101618161054989
:104550004FF47A720968B1FBF2F1491E41610721FB
:10456000016170477C00002010B5FBF76BFE11491C
:1045700010280ED300F1E02090F8F0030A78904262
:1045800007D2502080F31188BFF34F8FBFF36F8F96
:10459000FEE709480068896800F4E060884207D9AE
:1045A000502080F31188BFF34F8FBFF36F8FFEE76A
:1045B00010BD0000F00000200CED00E010B5084B2D
:1045C000002200BF53F832401CB1521C082AF9D314
:1045D00010BD43F8321003EBC201486010BD00006B
:1045E0002C08002070B515460E460446FFF744FF20
:1045F00094F944100020491C01D184F8440094F936
:104600004510491C01D184F84500FFF755FFA06B08
:1046100028B92A46314604F1240000F051F820461A
:10462000BDE87040FFF756BD10B5020014D00F482A
:10463000006B38B1502080F31188BFF34F8FBFF368
:104640006F8FFEE700F09CF800211046FFF796F907
:1046500000F0D6FC002807D105494FF080500860D3
:10466000BFF34F8FBFF36F8F10BD0000800000209D
:1046700004ED00E002490A6A0260C96841607047BF
:104680008000002001490120C8617047800000209F
:1046900010B50C4650B1094909681831FFF7C8FE3A
:1046A0002046BDE810400121FFF768B9502080F393
:1046B0001188BFF34F8FBFF36F8FFEE7800000209C
:1046C00070B514460D4668B10A4909681831FFF7FC
:1046D000C7FE0CB14FF0FF3521462846BDE87040BB
:1046E000FFF74CB9502080F31188BFF34F8FBFF311
:1046F0006F8FFEE78000002030B587B00024039460
:1047000005AA04A903A80494FFF76EFEDDE90301DE
:104710000094CDE90110002315A11748059A00F077
:1047200044FB164D0028E8621FD000F0FDFC012874
:1047300009D0401C19D1502080F31188BFF34F8F4E
:10474000BFF36F8FFEE7502080F31188BFF34F8FC8
:10475000BFF36F8F4FF0FF30A86201206861EC60FB
:1047600007B0BDE8304000F041B807B030BD0000F0
:1047700049444C4500000000293C0008800000200E
:104780000248016B491C0163704700008000002053
:104790001448016B11B10121C16170470021C16151
:1047A0000169B1FA81F1C1F11F0101EB81020E49EA
:1047B00051F822306BB101EB820101F108034A6824
:1047C00052684A609A4201D152684A60D1680160D9
:1047D0007047502080F31188BFF34F8FBFF36F8F66
:1047E000FEE70000800000206C0800201CB5264970
:1047F00008780190FF20087008788DF800009DF877
:1048000000009DF8002000F0F000904207D05020FA
:1048100080F31188BFF34F8FBFF36F8FFEE79DF8D2
:1048200000001A4C00F0500020700720A06005E046
:104830009DF8002052008DF80020401E9DF80020B9
:104840001206F5D4A060032807D0502080F3118809
:10485000BFF34F8FBFF36F8FFEE74FF44070A06040
:10486000019808700A48016841F47001016001680C
:1048700041F070410160FFF765FE00206060FBF7CA
:10488000ABFC00201CBD000000E400E0F0000020B4
:1048900020ED00E038B5049D18B153B1CAB181B123
:1048A00020E0502080F31188BFF34F8FBFF36F8F4C
:1048B000FEE7502080F31188BFF34F8FBFF36F8F57
:1048C000FEE7502080F31188BFF34F8FBFF36F8F47
:1048D000FEE739B1502080F31188BFF34F8FBFF34B
:1048E0006F8FFEE748241C46012384F846302B4690
:1048F0000094FFF7C9F9204638BD000070B50D4699
:10490000040025D0FFF7B8FDD4E90F20216802FB91
:104910000011A1600021A163216861600A46D4E909
:104920000F01401E00FB0121E16021464FF0FF30E6
:1049300001F8440F487004F110008DB1FFF76AFDD3
:1049400004F12400FFF766FDFFF7B6FD012070BDFE
:10495000502080F31188BFF34F8FBFF36F8FFEE7B6
:1049600021690029F0D000F011FB0028ECD00449A7
:104970004FF080500860BFF34F8FBFF36F8FE3E7B6
:1049800004ED00E02DE9FF4782B01D468A464FF056
:104990000008040003D0BAF1000F08D011E0502045
:1049A00080F31188BFF34F8FBFF36F8FFEE7206C4A
:1049B00038B1502080F31188BFF34F8FBFF36F8F52
:1049C000FEE7022D0AD1E06B012807D0502080F3CA
:1049D0001188BFF34F8FBFF36F8FFEE700F010FA1F
:1049E0003F4F4FF000094FF0805648B9049838B156
:1049F000502080F31188BFF34F8FBFF36F8FFEE716
:104A0000FFF73AFDA06BE16B884207D3022D05D07A
:104A10000498D0B1B8F1000F1AD01EE02A465146D2
:104A20002046FFF78AF8616A19B104F1240000F00A
:104A3000ADFA20B13E60BFF34F8FBFF36F8FFFF72A
:104A40003BFD012006B0BDE8F087FFF735FD22E011
:104A50006846FFF70FFE4FF00108FFF72DFDFFF747
:104A60008FFEFFF709FD94F94400401C01D184F842
:104A7000449094F94500401C01D184F84590FFF71B
:104A80001BFD04A9684600F029F930B12046FFF764
:104A900021FB00F0B5FA0020D4E7FFF7EDFCA06B96
:104AA000E16B884213D1FFF707FD04F11000049970
:104AB000FFF7EEFD2046FFF70DFB00F0A1FA0028FE
:104AC0009ED13E60BFF34F8FBFF36F8F98E7FFF724
:104AD000F3FC2046FFF7FEFA00F092FA90E70000A0
:104AE00004ED00E02DE9F0471F469046894604009A
:104AF00003D0B9F1000F08D011E0502080F31188E5
:104B0000BFF34F8FBFF36F8FFEE7206C38B150209B
:104B100080F31188BFF34F8FBFF36F8FFEE7022F33
:104B20000AD1E06B012807D0502080F31188BFF331
:104B30004F8FBFF36F8FFEE7FFF716FD5020EFF3A7
:104B4000118680F31188BFF34F8FBFF36F8FA06B77
:104B5000E16B884206D3022F04D0002086F311882F
:104B6000BDE8F08794F94550A06B3A464946204687
:104B7000FEF7E3FF681C04D06D1C84F8455001204B
:104B8000ECE7606A0028FAD004F1240000F0FEF996
:104B90000028F4D0B8F1000FF1D00121C8F80010BE
:104BA000EDE700002DE9F747002683B08A460400B0
:104BB00003D0BAF1000F08D011E0502080F3118823
:104BC000BFF34F8FBFF36F8FFEE7206C38B15020DB
:104BD00080F31188BFF34F8FBFF36F8FFEE700F0B4
:104BE0000FF9DFF8F4804FF000094FF0805748B913
:104BF000059838B1502080F31188BFF34F8FBFF371
:104C00006F8FFEE7FFF738FCA56BC5B15146204614
:104C1000FEF780FF6D1EA563206950B104F11000FE
:104C200000F0B4F928B1C8F80070BFF34F8FBFF39C
:104C30006F8FFFF741FC012006B0BDE8F0870598B3
:104C400008B11EB106E0FFF737FC27E06846FFF722
:104C500011FD0126FFF730FCFFF792FDFFF70CFC7A
:104C600094F94400401C01D184F8449094F9450023
:104C7000401C01D184F84590FFF71EFC05A9684649
:104C800000F02CF8002820460AD0FFF723FA00F0A5
:104C9000B7F92046FFF7B8F80028B3D00020CBE7DB
:104CA000FFF7B2F890B104F124000599FFF7F0FC8A
:104CB0002046FFF70FFA00F0A3F90028A2D1C8F8A8
:104CC0000070BFF34F8FBFF36F8F9BE72046FFF756
:104CD00001FA00F095F995E704ED00E02DE9F041C7
:104CE0000C46050011D0C4B1FFF7C6FB174BDA68BC
:104CF0006E682068911B471C17D02F681B6A9F4263
:104D000019D0964217D8012410E0502080F3118862
:104D1000BFF34F8FBFF36F8FFEE7502080F31188F2
:104D2000BFF34F8FBFF36F8FFEE70024FFF7C4FB85
:104D30002046BDE8F081884205D9401A2060284607
:104D4000FFF798FCF1E700202060DCE780000020FE
:104D50002DE9FF5F8346DDE90E87994616468A46B0
:104D60009000FFF7EDF905001CD05420FFF7E8F99B
:104D7000040014D00020256384F85100CDE90240DE
:104D8000CDE900874B46324651465846FEF787FF2D
:104D90002046FEF72BFE012004B0BDE8F09F284618
:104DA000FFF79EFB4FF0FF30F6E7F0B585B0DDE989
:104DB0000B640A9DA6B1DCB1542700972663022636
:104DC00084F85160002604AFCDE90246CDE90057D2
:104DD000FEF765FF2046FEF709FE049805B0F0BD1A
:104DE000502080F31188BFF34F8FBFF36F8FFEE722
:104DF000502080F31188BFF34F8FBFF36F8FFEE712
:104E00000548416919B1006B18B1002070470120B5
:104E10007047022070470000800000200148C068F1
:104E200070470000800000202DE9F0412F4C002643
:104E3000206B28B1A069401CA0613046BDE8F0811C
:104E4000E5686D1CE56013D1606B006838B15020D7
:104E500080F31188BFF34F8FBFF36F8FFEE7606B56
:104E6000A16B6163A063206A401C2062FFF7B2F867
:104E7000A06ADFF87C80854209D3606B0068A0B12E
:104E8000606BC068C7687868854211D2A0622068EC
:104E9000C06A00EB800158F82100012800D90126E2
:104EA000E0690028C9D00126C7E74FF0FF30EDE7E1
:104EB000381DFFF785FAB86A18B107F11800FFF737
:104EC0007FFAF96A0120226988401043206101EBD2
:104ED000810108EB8100391DFFF7C2FAF86A2168E9
:104EE000C96A8842C9D30126C7E7000080000020B4
:104EF0006C08002070B504004FF0000140D0214D37
:104F00002868844207D0502080F31188BFF34F8F68
:104F1000BFF36F8FFEE7A06C38B1401EA064636CD6
:104F2000E26A9A422CD040B12AE0502080F31188E6
:104F3000BFF34F8FBFF36F8FFEE7201DFFF740FADF
:104F4000114A012150B9E06A00EB800352F8233086
:104F500023B92B6901FA00F083432B61606CE06296
:104F6000C0F10700A061E06A2B6981401943296103
:104F700000EB800002EB8000211DFFF771FA012198
:104F8000084670BD800000206C0800202DE9F0412B
:104F9000C068C468ACB104F118000746FFF710FA06
:104FA000154D286B0126A0B139461448FFF758FA71
:104FB000E06A2968C96A88421CD90120EE61BDE80F
:104FC000F081502080F31188BFF34F8FBFF36F8FB4
:104FD000FEE7201DFFF7F4F9E16A2A6906FA01F0FD
:104FE0001043286101EB81000449B43901EB8000D2
:104FF000211DDBE70020E2E78000002020090020DF
:105000002DE9F0472C4D00242746286B38B1FFF7D7
:1050100033FA286B401E2863286B40B146E05020CD
:1050200080F31188BFF34F8FBFF36F8FFEE7A9683E
:10503000224E0120D1B3A6F1B40980463068E8B110
:10504000F068C46804F11800FFF7BAF9201DFFF7F3
:10505000B7F9E06A2A6908FA00F11143296100EB07
:10506000800109EB8100211DFFF7FAF9E06A296848
:10507000C96A8842E2D3C5F81C80DFE70CB1FEF7AD
:10508000A9FFAC6944B14646FFF7CEFE00B1EE6120
:10509000641EF9D10020A861E86938B108490127E8
:1050A00038070860BFF34F8FBFF36F8FFFF704FA25
:1050B0003846BDE8F087000080000020200900206D
:1050C00004ED00E02DE9FC4781461E461746884660
:1050D00028200A9DFFF734F804000AD0002084F845
:1050E0002400CDE9005433463A4641464846FEF78F
:1050F00022FE2046BDE8FC877CB52826DDE9065463
:10510000009644B1022684F82460CDE90054FEF7ED
:1051100012FE20467CBD502080F31188BFF34F8FD4
:10512000BFF36F8FFEE7000010B586B0FEF7C6FC38
:10513000114C2068B8B100200390049005AA04A97E
:1051400003A8FFF75BF9DDE9032102208DE80700E2
:1051500000230AA10B48059AFFF727FE606010B1F3
:1051600006B0012010BD502080F31188BFF34F8F8F
:10517000BFF36F8FFEE70000BC000020546D72206B
:1051800053766300B1400008FEB51E461346020088
:10519000089D4FF0000014D0124C2768002F0FD04C
:1051A000CDE900130292062915DAFFF729FE02283D
:1051B0004FF000030DD0002269462068FFF7E2FBA4
:1051C000FEBD502080F31188BFF34F8FBFF36F8F68
:1051D000FEE72A46F0E70023324669463846FFF7E5
:1051E00081FCFEBDBC000020014800F003B900BFF7
:1051F0000000C07FC10DD1F19E0206DB4FEA002303
:1052000043F0004323FA02F07047004207D54FEA0B
:105210004001B1F1FE4F02D24FF00000704710B5CF
:1052200000F09DF849922480002070476FEA20002A
:1052300070470000B0FA80F310FA03F2C3F19D0347
:105240000AD0D90501EB1220530638BF704700F190
:10525000010008BF20F00100704700004FF47F0CF0
:105260001CEAD0121EBF1CEAD11392EA0C0F93EA7B
:105270000C0F00F0478090EA010F48BF42F48072A3
:105280004FF0004C4CEA00204CEA012102EB0302F3
:10529000A0FB0113A2F50002002918BF43F001038F
:1052A0005B0028BF4FEA330342EB22425FEA132C34
:1052B0004CEBC2502EBFBCEB436FB2F57C0F704776
:1052C0004FEA036CBCF1004F08BF20F00100B2F5BB
:1052D0007C0F38BF70470BD582F0FF0212F5803F7C
:1052E000C8BF704700F1C040D8BF00F00040704711
:1052F00000F5000C5FEA4C0C48BF7047B0F1C040AD
:1053000000F073B890EA010F0CEAD11348BF42F4E1
:105310008072624538BF634504D280EA010000F024
:105320000040704710B500F01AF800BF8900013E38
:1053300000F007B800F009B85FEA410C5FEA1C6CA6
:1053400008D080EA010000F050B85FEA400C5FEA44
:105350001C6CF6D14FF00040A0F5800070470EF1B4
:10536000020E2EF0030E5EF8044B244204D44FEAE2
:105370004102B2F17F4F11D84FEA4003B3F17F4FA2
:105380000CD80ED14FEAD07CB2F17F4F0CEB4C0C15
:105390000CF1020C08BF4CEBD17C04E04FF0080C80
:1053A00001E04FEAD17C0CEB4C0324FA03F404F047
:1053B0000704B4F1040C06D20EEB840CBDE81040D7
:1053C0004CF0010C6047DFE80CF0070802024FF0D8
:1053D0000040A0F5800010BD0846420018BFD2F181
:1053E000807288BF00F0004010BDFF2141EAD0501C
:1053F000C00570470CF00F03092B08BF082000F010
:1054000051800A2B0BD0082B18BF704708BF1CF027
:10541000400F0AD04FF000004FF0000170471CF021
:10542000400F18BF4FF0004070471CF0100F08D01D
:1054300020F0704300F07F4242EAD3014FEA43700C
:10544000704700F0604021F07F4242EA000201F024
:105450007F4040EA727070474FF0FF0212EAD0526C
:105460001CBF92F0FF038B42C2BFD14200EBC15080
:105470007047002A0AD0002B0BD0002900F0004012
:10548000A4BF40F0FE4040F40000704700F0004030
:10549000704743024FF00B0C18BF4CF0806C7FF448
:1054A000A3AE70471CF4801F11D01CF4E02F03D072
:1054B0006FEACC31490070474FF04050EFF3008263
:1054C00022F0704242EA000282F3008870474FF0F7
:1054D00000007047685500080D2B00080000000010
:1054E000000000008000000000000000000000003C
:1054F0000934000800000000010202030405060749
:1055000008090A0B0C0D0E0F10100102020304050E
:10551000060708090A0B0C0D0E0F10100000000002
:105520000000000001020304060708090000000053
:1055300001020304303132333435363738394142D1
:1055400043444546403058003031323334353637E5
:105550003839616263646566403078003A7474007B
:105560003A7474003A74740064656661756C7454BE
:1055700061736B0041542B5354415455533D300DCE
:105580000A00000041542B455849540D0A00000000
:1055900041542B4E414D453D4D696E692D50726908
:1055A0006E7465720D0A00002B2B2B00CC55000881
:1055B000000000200C01000028010008D856000857
:1055C0000C010020F41D0000440100080000000050
:1055D00000000000000000000000000000000000CB
:1055E00000000000000000000001010000000100B8
:1055F00001000100010000000100000100000001A5
:105600000001000100010000000000000000000097
:10561000A8550008745500089055000884550008E6
:105620001E00000400080010002000400080000060
:105630000000000000000000000000000100000069
:10564000100000000000000000127A0000000000BE
:10565000000000000000000000000000000000004A
:10566000000000000000000000000000000000003A
:10567000000000000000000000000000000000002A
:10568000000000000000000000000000000000001A
:10569000000000000000000000000000000000000A
:1056A00000000000000000000000000000000000FA
:1056B00000000000000000000000000000000000EA
:1056C000AAAAAAAA00000000000000000000000032
:0856D0000000000000000000D2
:04000005080000ED02
:00000001FF
